{
  "_format": "hh-sol-artifact-1",
  "contractName": "ChiNetworkEvent",
  "sourceName": "src/active/ChiNetworkEvent.sol",
  "abi": [
    {
      "inputs": [],
      "name": "getOwner",
      "outputs": [
        {
          "internalType": "address",
          "name": "",
          "type": "address"
        }
      ],
      "stateMutability": "view",
      "type": "function"
    },
    {
      "inputs": [],
      "name": "getTickets",
      "outputs": [
        {
          "components": [
            {
              "internalType": "uint256",
              "name": "id",
              "type": "uint256"
            },
            {
              "internalType": "string",
              "name": "name",
              "type": "string"
            },
            {
              "internalType": "string",
              "name": "image",
              "type": "string"
            },
            {
              "internalType": "string",
              "name": "description",
              "type": "string"
            },
            {
              "internalType": "bool",
              "name": "unlockContent",
              "type": "bool"
            },
            {
              "internalType": "uint256",
              "name": "price",
              "type": "uint256"
            },
            {
              "internalType": "uint256",
              "name": "amount",
              "type": "uint256"
            },
            {
              "internalType": "string",
              "name": "content",
              "type": "string"
            },
            {
              "internalType": "string",
              "name": "metaUri",
              "type": "string"
            }
          ],
          "internalType": "struct TicketInfo[]",
          "name": "_tickets",
          "type": "tuple[]"
        }
      ],
      "stateMutability": "view",
      "type": "function"
    },
    {
      "inputs": [],
      "name": "info",
      "outputs": [
        {
          "internalType": "string",
          "name": "name",
          "type": "string"
        },
        {
          "internalType": "string",
          "name": "avatar",
          "type": "string"
        },
        {
          "internalType": "string",
          "name": "background",
          "type": "string"
        },
        {
          "internalType": "string",
          "name": "url",
          "type": "string"
        },
        {
          "internalType": "string",
          "name": "startTime",
          "type": "string"
        },
        {
          "internalType": "string",
          "name": "endTime",
          "type": "string"
        },
        {
          "internalType": "string",
          "name": "description",
          "type": "string"
        },
        {
          "internalType": "string",
          "name": "subTitle",
          "type": "string"
        }
      ],
      "stateMutability": "view",
      "type": "function"
    },
    {
      "inputs": [
        {
          "internalType": "address",
          "name": "_ticketAddress",
          "type": "address"
        },
        {
          "internalType": "address",
          "name": "owner",
          "type": "address"
        },
        {
          "components": [
            {
              "internalType": "string",
              "name": "name",
              "type": "string"
            },
            {
              "internalType": "string",
              "name": "avatar",
              "type": "string"
            },
            {
              "internalType": "string",
              "name": "background",
              "type": "string"
            },
            {
              "internalType": "string",
              "name": "url",
              "type": "string"
            },
            {
              "internalType": "string",
              "name": "startTime",
              "type": "string"
            },
            {
              "internalType": "string",
              "name": "endTime",
              "type": "string"
            },
            {
              "internalType": "string",
              "name": "description",
              "type": "string"
            },
            {
              "internalType": "string",
              "name": "subTitle",
              "type": "string"
            }
          ],
          "internalType": "struct EventInfo",
          "name": "_event",
          "type": "tuple"
        },
        {
          "components": [
            {
              "internalType": "uint256",
              "name": "id",
              "type": "uint256"
            },
            {
              "internalType": "string",
              "name": "name",
              "type": "string"
            },
            {
              "internalType": "string",
              "name": "image",
              "type": "string"
            },
            {
              "internalType": "string",
              "name": "description",
              "type": "string"
            },
            {
              "internalType": "bool",
              "name": "unlockContent",
              "type": "bool"
            },
            {
              "internalType": "uint256",
              "name": "price",
              "type": "uint256"
            },
            {
              "internalType": "uint256",
              "name": "amount",
              "type": "uint256"
            },
            {
              "internalType": "string",
              "name": "content",
              "type": "string"
            },
            {
              "internalType": "string",
              "name": "metaUri",
              "type": "string"
            }
          ],
          "internalType": "struct TicketInfo[]",
          "name": "_tickets",
          "type": "tuple[]"
        },
        {
          "components": [
            {
              "internalType": "string",
              "name": "avatarColor",
              "type": "string"
            },
            {
              "internalType": "string",
              "name": "titleFont",
              "type": "string"
            },
            {
              "internalType": "string",
              "name": "subTitleFont",
              "type": "string"
            },
            {
              "internalType": "string",
              "name": "primaryColor",
              "type": "string"
            },
            {
              "internalType": "string",
              "name": "secondColor",
              "type": "string"
            },
            {
              "internalType": "string",
              "name": "tertiary",
              "type": "string"
            },
            {
              "internalType": "string",
              "name": "backgroundTitle",
              "type": "string"
            },
            {
              "internalType": "string",
              "name": "backgroundColor",
              "type": "string"
            },
            {
              "internalType": "string",
              "name": "backgroundTitleColor",
              "type": "string"
            },
            {
              "internalType": "string",
              "name": "css",
              "type": "string"
            }
          ],
          "internalType": "struct CustomStyle",
          "name": "_style",
          "type": "tuple"
        }
      ],
      "name": "init",
      "outputs": [],
      "stateMutability": "nonpayable",
      "type": "function"
    },
    {
      "inputs": [
        {
          "internalType": "uint256[]",
          "name": "ids",
          "type": "uint256[]"
        },
        {
          "internalType": "uint256[]",
          "name": "amounts",
          "type": "uint256[]"
        }
      ],
      "name": "mintTicket",
      "outputs": [],
      "stateMutability": "nonpayable",
      "type": "function"
    },
    {
      "inputs": [],
      "name": "style",
      "outputs": [
        {
          "internalType": "string",
          "name": "avatarColor",
          "type": "string"
        },
        {
          "internalType": "string",
          "name": "titleFont",
          "type": "string"
        },
        {
          "internalType": "string",
          "name": "subTitleFont",
          "type": "string"
        },
        {
          "internalType": "string",
          "name": "primaryColor",
          "type": "string"
        },
        {
          "internalType": "string",
          "name": "secondColor",
          "type": "string"
        },
        {
          "internalType": "string",
          "name": "tertiary",
          "type": "string"
        },
        {
          "internalType": "string",
          "name": "backgroundTitle",
          "type": "string"
        },
        {
          "internalType": "string",
          "name": "backgroundColor",
          "type": "string"
        },
        {
          "internalType": "string",
          "name": "backgroundTitleColor",
          "type": "string"
        },
        {
          "internalType": "string",
          "name": "css",
          "type": "string"
        }
      ],
      "stateMutability": "view",
      "type": "function"
    },
    {
      "inputs": [],
      "name": "ticketToken",
      "outputs": [
        {
          "internalType": "contract EventXTicketToken",
          "name": "",
          "type": "address"
        }
      ],
      "stateMutability": "view",
      "type": "function"
    },
    {
      "inputs": [
        {
          "internalType": "uint256",
          "name": "",
          "type": "uint256"
        }
      ],
      "name": "tickets",
      "outputs": [
        {
          "internalType": "uint256",
          "name": "id",
          "type": "uint256"
        },
        {
          "internalType": "string",
          "name": "name",
          "type": "string"
        },
        {
          "internalType": "string",
          "name": "image",
          "type": "string"
        },
        {
          "internalType": "string",
          "name": "description",
          "type": "string"
        },
        {
          "internalType": "bool",
          "name": "unlockContent",
          "type": "bool"
        },
        {
          "internalType": "uint256",
          "name": "price",
          "type": "uint256"
        },
        {
          "internalType": "uint256",
          "name": "amount",
          "type": "uint256"
        },
        {
          "internalType": "string",
          "name": "content",
          "type": "string"
        },
        {
          "internalType": "string",
          "name": "metaUri",
          "type": "string"
        }
      ],
      "stateMutability": "view",
      "type": "function"
    },
    {
      "inputs": [
        {
          "internalType": "uint256",
          "name": "",
          "type": "uint256"
        }
      ],
      "name": "totalSoldTicket",
      "outputs": [
        {
          "internalType": "uint256",
          "name": "",
          "type": "uint256"
        }
      ],
      "stateMutability": "view",
      "type": "function"
    },
    {
      "inputs": [],
      "name": "totalTickets",
      "outputs": [
        {
          "internalType": "uint256",
          "name": "",
          "type": "uint256"
        }
      ],
      "stateMutability": "view",
      "type": "function"
    },
    {
      "inputs": [
        {
          "components": [
            {
              "internalType": "string",
              "name": "name",
              "type": "string"
            },
            {
              "internalType": "string",
              "name": "avatar",
              "type": "string"
            },
            {
              "internalType": "string",
              "name": "background",
              "type": "string"
            },
            {
              "internalType": "string",
              "name": "url",
              "type": "string"
            },
            {
              "internalType": "string",
              "name": "startTime",
              "type": "string"
            },
            {
              "internalType": "string",
              "name": "endTime",
              "type": "string"
            },
            {
              "internalType": "string",
              "name": "description",
              "type": "string"
            },
            {
              "internalType": "string",
              "name": "subTitle",
              "type": "string"
            }
          ],
          "internalType": "struct EventInfo",
          "name": "_event",
          "type": "tuple"
        },
        {
          "components": [
            {
              "internalType": "uint256",
              "name": "id",
              "type": "uint256"
            },
            {
              "internalType": "string",
              "name": "name",
              "type": "string"
            },
            {
              "internalType": "string",
              "name": "image",
              "type": "string"
            },
            {
              "internalType": "string",
              "name": "description",
              "type": "string"
            },
            {
              "internalType": "bool",
              "name": "unlockContent",
              "type": "bool"
            },
            {
              "internalType": "uint256",
              "name": "price",
              "type": "uint256"
            },
            {
              "internalType": "uint256",
              "name": "amount",
              "type": "uint256"
            },
            {
              "internalType": "string",
              "name": "content",
              "type": "string"
            },
            {
              "internalType": "string",
              "name": "metaUri",
              "type": "string"
            }
          ],
          "internalType": "struct TicketInfo[]",
          "name": "_tickets",
          "type": "tuple[]"
        },
        {
          "components": [
            {
              "internalType": "string",
              "name": "avatarColor",
              "type": "string"
            },
            {
              "internalType": "string",
              "name": "titleFont",
              "type": "string"
            },
            {
              "internalType": "string",
              "name": "subTitleFont",
              "type": "string"
            },
            {
              "internalType": "string",
              "name": "primaryColor",
              "type": "string"
            },
            {
              "internalType": "string",
              "name": "secondColor",
              "type": "string"
            },
            {
              "internalType": "string",
              "name": "tertiary",
              "type": "string"
            },
            {
              "internalType": "string",
              "name": "backgroundTitle",
              "type": "string"
            },
            {
              "internalType": "string",
              "name": "backgroundColor",
              "type": "string"
            },
            {
              "internalType": "string",
              "name": "backgroundTitleColor",
              "type": "string"
            },
            {
              "internalType": "string",
              "name": "css",
              "type": "string"
            }
          ],
          "internalType": "struct CustomStyle",
          "name": "_style",
          "type": "tuple"
        }
      ],
      "name": "updateEvent",
      "outputs": [],
      "stateMutability": "nonpayable",
      "type": "function"
    }
  ],
  "bytecode": "0x608060405234801561001057600080fd5b50612cb6806100206000396000f3fe608060405234801561001057600080fd5b50600436106100a95760003560e01c8063780e0a9011610071578063780e0a9014610153578063893d20e814610171578063cb2b15591461019c578063d5ed4d5a146101af578063dd11247e146101c2578063f7970f57146101cb57600080fd5b8063250a986a146100ae578063370158ea146100c35780634ed02622146100e857806350b44712146100fd57806367633dc714610125575b600080fd5b6100c16100bc3660046125f9565b6101de565b005b6100cb61024d565b6040516100df98979695949392919061290b565b60405180910390f35b6100f06106c1565b6040516100df91906127bc565b61011061010b36600461267c565b610a2c565b6040516100df99989796959493929190612a95565b61014561013336600461267c565b60036020526000908152604090205481565b6040519081526020016100df565b61015b610d37565b6040516100df9a999897969594939291906129ba565b6000546201000090046001600160a01b03165b6040516001600160a01b0390911681526020016100df565b6100c16101aa366004612599565b6112c7565b600254610184906001600160a01b031681565b61014560055481565b6100c16101d93660046124f4565b611547565b6001546001600160a01b031633146102355760405162461bcd60e51b815260206004820152601560248201527463616c6c6572206973206e6f7420666163746f727960581b60448201526064015b60405180910390fd5b61023f83826116d1565b6102488261199e565b505050565b60078054819061025c90612bfe565b80601f016020809104026020016040519081016040528092919081815260200182805461028890612bfe565b80156102d55780601f106102aa576101008083540402835291602001916102d5565b820191906000526020600020905b8154815290600101906020018083116102b857829003601f168201915b5050505050908060010180546102ea90612bfe565b80601f016020809104026020016040519081016040528092919081815260200182805461031690612bfe565b80156103635780601f1061033857610100808354040283529160200191610363565b820191906000526020600020905b81548152906001019060200180831161034657829003601f168201915b50505050509080600201805461037890612bfe565b80601f01602080910402602001604051908101604052809291908181526020018280546103a490612bfe565b80156103f15780601f106103c6576101008083540402835291602001916103f1565b820191906000526020600020905b8154815290600101906020018083116103d457829003601f168201915b50505050509080600301805461040690612bfe565b80601f016020809104026020016040519081016040528092919081815260200182805461043290612bfe565b801561047f5780601f106104545761010080835404028352916020019161047f565b820191906000526020600020905b81548152906001019060200180831161046257829003601f168201915b50505050509080600401805461049490612bfe565b80601f01602080910402602001604051908101604052809291908181526020018280546104c090612bfe565b801561050d5780601f106104e25761010080835404028352916020019161050d565b820191906000526020600020905b8154815290600101906020018083116104f057829003601f168201915b50505050509080600501805461052290612bfe565b80601f016020809104026020016040519081016040528092919081815260200182805461054e90612bfe565b801561059b5780601f106105705761010080835404028352916020019161059b565b820191906000526020600020905b81548152906001019060200180831161057e57829003601f168201915b5050505050908060060180546105b090612bfe565b80601f01602080910402602001604051908101604052809291908181526020018280546105dc90612bfe565b80156106295780601f106105fe57610100808354040283529160200191610629565b820191906000526020600020905b81548152906001019060200180831161060c57829003601f168201915b50505050509080600701805461063e90612bfe565b80601f016020809104026020016040519081016040528092919081815260200182805461066a90612bfe565b80156106b75780601f1061068c576101008083540402835291602001916106b7565b820191906000526020600020905b81548152906001019060200180831161069a57829003601f168201915b5050505050905088565b60606006805480602002602001604051908101604052809291908181526020016000905b82821015610a235783829060005260206000209060090201604051806101200160405290816000820154815260200160018201805461072390612bfe565b80601f016020809104026020016040519081016040528092919081815260200182805461074f90612bfe565b801561079c5780601f106107715761010080835404028352916020019161079c565b820191906000526020600020905b81548152906001019060200180831161077f57829003601f168201915b505050505081526020016002820180546107b590612bfe565b80601f01602080910402602001604051908101604052809291908181526020018280546107e190612bfe565b801561082e5780601f106108035761010080835404028352916020019161082e565b820191906000526020600020905b81548152906001019060200180831161081157829003601f168201915b5050505050815260200160038201805461084790612bfe565b80601f016020809104026020016040519081016040528092919081815260200182805461087390612bfe565b80156108c05780601f10610895576101008083540402835291602001916108c0565b820191906000526020600020905b8154815290600101906020018083116108a357829003601f168201915b5050509183525050600482015460ff1615156020820152600582015460408201526006820154606082015260078201805460809092019161090090612bfe565b80601f016020809104026020016040519081016040528092919081815260200182805461092c90612bfe565b80156109795780601f1061094e57610100808354040283529160200191610979565b820191906000526020600020905b81548152906001019060200180831161095c57829003601f168201915b5050505050815260200160088201805461099290612bfe565b80601f01602080910402602001604051908101604052809291908181526020018280546109be90612bfe565b8015610a0b5780601f106109e057610100808354040283529160200191610a0b565b820191906000526020600020905b8154815290600101906020018083116109ee57829003601f168201915b505050505081525050815260200190600101906106e5565b50505050905090565b60068181548110610a3c57600080fd5b60009182526020909120600990910201805460018201805491935090610a6190612bfe565b80601f0160208091040260200160405190810160405280929190818152602001828054610a8d90612bfe565b8015610ada5780601f10610aaf57610100808354040283529160200191610ada565b820191906000526020600020905b815481529060010190602001808311610abd57829003601f168201915b505050505090806002018054610aef90612bfe565b80601f0160208091040260200160405190810160405280929190818152602001828054610b1b90612bfe565b8015610b685780601f10610b3d57610100808354040283529160200191610b68565b820191906000526020600020905b815481529060010190602001808311610b4b57829003601f168201915b505050505090806003018054610b7d90612bfe565b80601f0160208091040260200160405190810160405280929190818152602001828054610ba990612bfe565b8015610bf65780601f10610bcb57610100808354040283529160200191610bf6565b820191906000526020600020905b815481529060010190602001808311610bd957829003601f168201915b505050600484015460058501546006860154600787018054969760ff9094169692955090935090610c2690612bfe565b80601f0160208091040260200160405190810160405280929190818152602001828054610c5290612bfe565b8015610c9f5780601f10610c7457610100808354040283529160200191610c9f565b820191906000526020600020905b815481529060010190602001808311610c8257829003601f168201915b505050505090806008018054610cb490612bfe565b80601f0160208091040260200160405190810160405280929190818152602001828054610ce090612bfe565b8015610d2d5780601f10610d0257610100808354040283529160200191610d2d565b820191906000526020600020905b815481529060010190602001808311610d1057829003601f168201915b5050505050905089565b600f80548190610d4690612bfe565b80601f0160208091040260200160405190810160405280929190818152602001828054610d7290612bfe565b8015610dbf5780601f10610d9457610100808354040283529160200191610dbf565b820191906000526020600020905b815481529060010190602001808311610da257829003601f168201915b505050505090806001018054610dd490612bfe565b80601f0160208091040260200160405190810160405280929190818152602001828054610e0090612bfe565b8015610e4d5780601f10610e2257610100808354040283529160200191610e4d565b820191906000526020600020905b815481529060010190602001808311610e3057829003601f168201915b505050505090806002018054610e6290612bfe565b80601f0160208091040260200160405190810160405280929190818152602001828054610e8e90612bfe565b8015610edb5780601f10610eb057610100808354040283529160200191610edb565b820191906000526020600020905b815481529060010190602001808311610ebe57829003601f168201915b505050505090806003018054610ef090612bfe565b80601f0160208091040260200160405190810160405280929190818152602001828054610f1c90612bfe565b8015610f695780601f10610f3e57610100808354040283529160200191610f69565b820191906000526020600020905b815481529060010190602001808311610f4c57829003601f168201915b505050505090806004018054610f7e90612bfe565b80601f0160208091040260200160405190810160405280929190818152602001828054610faa90612bfe565b8015610ff75780601f10610fcc57610100808354040283529160200191610ff7565b820191906000526020600020905b815481529060010190602001808311610fda57829003601f168201915b50505050509080600501805461100c90612bfe565b80601f016020809104026020016040519081016040528092919081815260200182805461103890612bfe565b80156110855780601f1061105a57610100808354040283529160200191611085565b820191906000526020600020905b81548152906001019060200180831161106857829003601f168201915b50505050509080600601805461109a90612bfe565b80601f01602080910402602001604051908101604052809291908181526020018280546110c690612bfe565b80156111135780601f106110e857610100808354040283529160200191611113565b820191906000526020600020905b8154815290600101906020018083116110f657829003601f168201915b50505050509080600701805461112890612bfe565b80601f016020809104026020016040519081016040528092919081815260200182805461115490612bfe565b80156111a15780601f10611176576101008083540402835291602001916111a1565b820191906000526020600020905b81548152906001019060200180831161118457829003601f168201915b5050505050908060080180546111b690612bfe565b80601f01602080910402602001604051908101604052809291908181526020018280546111e290612bfe565b801561122f5780601f106112045761010080835404028352916020019161122f565b820191906000526020600020905b81548152906001019060200180831161121257829003601f168201915b50505050509080600901805461124490612bfe565b80601f016020809104026020016040519081016040528092919081815260200182805461127090612bfe565b80156112bd5780601f10611292576101008083540402835291602001916112bd565b820191906000526020600020905b8154815290600101906020018083116112a057829003601f168201915b505050505090508a565b60005b82518110156113cf57600460008483815181106112f757634e487b7160e01b600052603260045260246000fd5b602002602001015181526020019081526020016000205482828151811061132e57634e487b7160e01b600052603260045260246000fd5b60200260200101516003600086858151811061135a57634e487b7160e01b600052603260045260246000fd5b602002602001015181526020019081526020016000205461137b9190612be6565b106113bd5760405162461bcd60e51b8152602060048201526012602482015271151a58dad95d081a5cc81cdbdb19081bdd5d60721b604482015260640161022c565b806113c781612c39565b9150506112ca565b5060005b825181101561149a578181815181106113fc57634e487b7160e01b600052603260045260246000fd5b60200260200101516003600085848151811061142857634e487b7160e01b600052603260045260246000fd5b60200260200101518152602001908152602001600020546114499190612be6565b6003600085848151811061146d57634e487b7160e01b600052603260045260246000fd5b6020026020010151815260200190815260200160002081905550808061149290612c39565b9150506113d3565b50336114dd5760405162461bcd60e51b81526020600482015260126024820152711cd95b99195c881a5cc81b9bdd081b9d5b1b60721b604482015260640161022c565b600254604051630fbfeffd60e11b81526001600160a01b0390911690631f7fdffa906115119033908690869060040161276d565b600060405180830381600087803b15801561152b57600080fd5b505af115801561153f573d6000803e3d6000fd5b505050505050565b600054610100900460ff1680611560575060005460ff16155b6115c35760405162461bcd60e51b815260206004820152602e60248201527f496e697469616c697a61626c653a20636f6e747261637420697320616c72656160448201526d191e481a5b9a5d1a585b1a5e995960921b606482015260840161022c565b600054610100900460ff161580156115e5576000805461ffff19166101011790555b600080546001600160a01b038716620100000262010000600160b01b0319909116178155600180546001600160a01b0319163317905561162487611dd0565b600280546001600160a01b0319166001600160a01b0383169081179091556040805163f321b30560e01b81523060048201526024810191909152600060448201529192509063f321b30590606401600060405180830381600087803b15801561168c57600080fd5b505af11580156116a0573d6000803e3d6000fd5b505050506116ae85846116d1565b6116b78461199e565b50801561153f576000805461ff0019169055505050505050565b60405180610100016040528083600001518152602001836020015181526020018360400151815260200183606001518152602001836080015181526020018360a0015181526020018360c0015181526020018360e0015181525060076000820151816000019080519060200190611749929190611e22565b5060208281015180516117629260018501920190611e22565b506040820151805161177e916002840191602090910190611e22565b506060820151805161179a916003840191602090910190611e22565b50608082015180516117b6916004840191602090910190611e22565b5060a082015180516117d2916005840191602090910190611e22565b5060c082015180516117ee916006840191602090910190611e22565b5060e0820151805161180a916007840191602090910190611e22565b5090505060405180610140016040528082600001518152602001826020015181526020018260400151815260200182606001518152602001826080015181526020018260a0015181526020018260c0015181526020018260e0015181526020018261010001518152602001826101200151815250600f600082015181600001908051906020019061189c929190611e22565b5060208281015180516118b59260018501920190611e22565b50604082015180516118d1916002840191602090910190611e22565b50606082015180516118ed916003840191602090910190611e22565b5060808201518051611909916004840191602090910190611e22565b5060a08201518051611925916005840191602090910190611e22565b5060c08201518051611941916006840191602090910190611e22565b5060e0820151805161195d916007840191602090910190611e22565b50610100820151805161197a916008840191602090910190611e22565b506101208201518051611997916009840191602090910190611e22565b5050505050565b6119aa60066000611ea6565b8051600581905515611dcd57600081516001600160401b038111156119df57634e487b7160e01b600052604160045260246000fd5b604051908082528060200260200182016040528015611a08578160200160208202803683370190505b509050600082516001600160401b03811115611a3457634e487b7160e01b600052604160045260246000fd5b604051908082528060200260200182016040528015611a6757816020015b6060815260200190600190039081611a525790505b509050600083516001600160401b03811115611a9357634e487b7160e01b600052604160045260246000fd5b604051908082528060200260200182016040528015611ac657816020015b6060815260200190600190039081611ab15790505b50905060005b8451811015611d62576006858281518110611af757634e487b7160e01b600052603260045260246000fd5b602090810291909101810151825460018181018555600094855293839020825160099092020190815581830151805192949193611b3a9392850192910190611e22565b5060408201518051611b56916002840191602090910190611e22565b5060608201518051611b72916003840191602090910190611e22565b50608082015160048201805460ff191691151591909117905560a0820151600582015560c0820151600682015560e08201518051611bba916007840191602090910190611e22565b506101008201518051611bd7916008840191602090910190611e22565b505050848181518110611bfa57634e487b7160e01b600052603260045260246000fd5b602002602001015160000151848281518110611c2657634e487b7160e01b600052603260045260246000fd5b602002602001018181525050848181518110611c5257634e487b7160e01b600052603260045260246000fd5b602002602001015160e00151838281518110611c7e57634e487b7160e01b600052603260045260246000fd5b6020026020010181905250848181518110611ca957634e487b7160e01b600052603260045260246000fd5b60200260200101516101000151828281518110611cd657634e487b7160e01b600052603260045260246000fd5b6020026020010181905250848181518110611d0157634e487b7160e01b600052603260045260246000fd5b602002602001015160c0015160046000878481518110611d3157634e487b7160e01b600052603260045260246000fd5b6020026020010151600001518152602001908152602001600020819055508080611d5a90612c39565b915050611acc565b5060025460405163292dd72f60e11b81526001600160a01b039091169063525bae5e90611d97908690869086906004016128c8565b600060405180830381600087803b158015611db157600080fd5b505af1158015611dc5573d6000803e3d6000fd5b505050505050505b50565b6000808260601b9050604051733d602d80600a3d3981f3363d3d373d3d3d363d7360601b81528160148201526e5af43d82803e903d91602b57fd5bf360881b60288201526037816000f0949350505050565b828054611e2e90612bfe565b90600052602060002090601f016020900481019282611e505760008555611e96565b82601f10611e6957805160ff1916838001178555611e96565b82800160010185558215611e96579182015b82811115611e96578251825591602001919060010190611e7b565b50611ea2929150611ec7565b5090565b5080546000825560090290600052602060002090810190611dcd9190611edc565b5b80821115611ea25760008155600101611ec8565b80821115611ea2576000808255611ef66001830182611f53565b611f04600283016000611f53565b611f12600383016000611f53565b60048201805460ff1916905560006005830181905560068301819055611f3c906007840190611f53565b611f4a600883016000611f53565b50600901611edc565b508054611f5f90612bfe565b6000825580601f10611f6f575050565b601f016020900490600052602060002090810190611dcd9190611ec7565b80356001600160a01b0381168114611fa457600080fd5b919050565b600082601f830112611fb9578081fd5b81356020611fce611fc983612bc3565b612b93565b80838252828201915082860187848660051b8901011115611fed578586fd5b855b8581101561212a5781356001600160401b038082111561200d578889fd5b90890190610120828c03601f190181131561202657898afd5b61202e612b24565b888401358152604084013583811115612045578b8cfd5b6120538e8b838801016121a4565b8a83015250606084013583811115612069578b8cfd5b6120778e8b838801016121a4565b6040830152506080808501358481111561208f578c8dfd5b61209d8f8c838901016121a4565b60608401525060a06120b0818701612194565b8284015260c0915081860135818401525060e0850135818301525061010080850135848111156120de578c8dfd5b6120ec8f8c838901016121a4565b60e084015250918401359183831115612103578b8cfd5b6121118e8b858801016121a4565b9082015287525050509284019290840190600101611fef565b5090979650505050505050565b600082601f830112612147578081fd5b81356020612157611fc983612bc3565b80838252828201915082860187848660051b8901011115612176578586fd5b855b8581101561212a57813584529284019290840190600101612178565b80358015158114611fa457600080fd5b600082601f8301126121b4578081fd5b81356001600160401b038111156121cd576121cd612c6a565b6121e0601f8201601f1916602001612b93565b8181528460208386010111156121f4578283fd5b816020850160208301379081016020019190915292915050565b60006101408284031215612220578081fd5b612228612b4d565b905081356001600160401b038082111561224157600080fd5b61224d858386016121a4565b8352602084013591508082111561226357600080fd5b61226f858386016121a4565b6020840152604084013591508082111561228857600080fd5b612294858386016121a4565b604084015260608401359150808211156122ad57600080fd5b6122b9858386016121a4565b606084015260808401359150808211156122d257600080fd5b6122de858386016121a4565b608084015260a08401359150808211156122f757600080fd5b612303858386016121a4565b60a084015260c084013591508082111561231c57600080fd5b612328858386016121a4565b60c084015260e084013591508082111561234157600080fd5b61234d858386016121a4565b60e08401526101009150818401358181111561236857600080fd5b612374868287016121a4565b83850152506101209150818401358181111561238f57600080fd5b61239b868287016121a4565b8385015250505092915050565b600061010082840312156123ba578081fd5b6123c2612b70565b905081356001600160401b03808211156123db57600080fd5b6123e7858386016121a4565b835260208401359150808211156123fd57600080fd5b612409858386016121a4565b6020840152604084013591508082111561242257600080fd5b61242e858386016121a4565b6040840152606084013591508082111561244757600080fd5b612453858386016121a4565b6060840152608084013591508082111561246c57600080fd5b612478858386016121a4565b608084015260a084013591508082111561249157600080fd5b61249d858386016121a4565b60a084015260c08401359150808211156124b657600080fd5b6124c2858386016121a4565b60c084015260e08401359150808211156124db57600080fd5b506124e8848285016121a4565b60e08301525092915050565b600080600080600060a0868803121561250b578081fd5b61251486611f8d565b945061252260208701611f8d565b935060408601356001600160401b038082111561253d578283fd5b61254989838a016123a8565b9450606088013591508082111561255e578283fd5b61256a89838a01611fa9565b9350608088013591508082111561257f578283fd5b5061258c8882890161220e565b9150509295509295909350565b600080604083850312156125ab578182fd5b82356001600160401b03808211156125c1578384fd5b6125cd86838701612137565b935060208501359150808211156125e2578283fd5b506125ef85828601612137565b9150509250929050565b60008060006060848603121561260d578283fd5b83356001600160401b0380821115612623578485fd5b61262f878388016123a8565b94506020860135915080821115612644578384fd5b61265087838801611fa9565b93506040860135915080821115612665578283fd5b506126728682870161220e565b9150509250925092565b60006020828403121561268d578081fd5b5035919050565b600081518084526020808501808196508360051b81019150828601855b858110156126db5782840389526126c9848351612722565b988501989350908401906001016126b1565b5091979650505050505050565b6000815180845260208085019450808401835b83811015612717578151875295820195908201906001016126fb565b509495945050505050565b60008151808452815b818110156127475760208185018101518683018201520161272b565b818111156127585782602083870101525b50601f01601f19169290920160200192915050565b6001600160a01b0384168152608060208201819052600090612791908301856126e8565b82810360408401526127a381856126e8565b8381036060909401939093525081526020019392505050565b60006020808301818452808551808352604092508286019150828160051b870101848801865b838110156128ba57603f1989840301855281516101208151855288820151818a87015261281182870182612722565b91505087820151858203898701526128298282612722565b915050606080830151868303828801526128438382612722565b9250505060808083015161285a8288018215159052565b505060a0828101519086015260c0808301519086015260e080830151868303828801526128878382612722565b9250505061010080830151925085820381870152506128a68183612722565b9689019694505050908601906001016127e2565b509098975050505050505050565b6060815260006128db60608301866126e8565b82810360208401526128ed8186612694565b905082810360408401526129018185612694565b9695505050505050565b600061010080835261291f8184018c612722565b90508281036020840152612933818b612722565b90508281036040840152612947818a612722565b9050828103606084015261295b8189612722565b9050828103608084015261296f8188612722565b905082810360a08401526129838187612722565b905082810360c08401526129978186612722565b905082810360e08401526129ab8185612722565b9b9a5050505050505050505050565b60006101408083526129ce8184018e612722565b905082810360208401526129e2818d612722565b905082810360408401526129f6818c612722565b90508281036060840152612a0a818b612722565b90508281036080840152612a1e818a612722565b905082810360a0840152612a328189612722565b905082810360c0840152612a468188612722565b905082810360e0840152612a5a8187612722565b9050828103610100840152612a6f8186612722565b9050828103610120840152612a848185612722565b9d9c50505050505050505050505050565b60006101208b8352806020840152612aaf8184018c612722565b90508281036040840152612ac3818b612722565b90508281036060840152612ad7818a612722565b905087151560808401528660a08401528560c084015282810360e0840152612aff8186612722565b9050828103610100840152612b148185612722565b9c9b505050505050505050505050565b60405161012081016001600160401b0381118282101715612b4757612b47612c6a565b60405290565b60405161014081016001600160401b0381118282101715612b4757612b47612c6a565b60405161010081016001600160401b0381118282101715612b4757612b47612c6a565b604051601f8201601f191681016001600160401b0381118282101715612bbb57612bbb612c6a565b604052919050565b60006001600160401b03821115612bdc57612bdc612c6a565b5060051b60200190565b60008219821115612bf957612bf9612c54565b500190565b600181811c90821680612c1257607f821691505b60208210811415612c3357634e487b7160e01b600052602260045260246000fd5b50919050565b6000600019821415612c4d57612c4d612c54565b5060010190565b634e487b7160e01b600052601160045260246000fd5b634e487b7160e01b600052604160045260246000fdfea2646970667358221220366467f97df18fe6084b47fd3fece5bd7f05a7aa0af47c7fdff0ea77ddc3925e64736f6c63430008040033",
  "linkReferences": {},
  "deployedLinkReferences": {}
}