{
  "_format": "hh-sol-artifact-1",
  "contractName": "ChiNetworkEventFactory",
  "sourceName": "src/active/ChiNetworkEventFactory.sol",
  "abi": [
    {
      "inputs": [
        {
          "components": [
            {
              "internalType": "string",
              "name": "name",
              "type": "string"
            },
            {
              "internalType": "string",
              "name": "avatar",
              "type": "string"
            },
            {
              "internalType": "string",
              "name": "background",
              "type": "string"
            },
            {
              "internalType": "string",
              "name": "url",
              "type": "string"
            },
            {
              "internalType": "string",
              "name": "startTime",
              "type": "string"
            },
            {
              "internalType": "string",
              "name": "endTime",
              "type": "string"
            },
            {
              "internalType": "string",
              "name": "description",
              "type": "string"
            },
            {
              "internalType": "string",
              "name": "subTitle",
              "type": "string"
            }
          ],
          "internalType": "struct EventInfo",
          "name": "info",
          "type": "tuple"
        },
        {
          "components": [
            {
              "internalType": "uint256",
              "name": "id",
              "type": "uint256"
            },
            {
              "internalType": "string",
              "name": "name",
              "type": "string"
            },
            {
              "internalType": "string",
              "name": "image",
              "type": "string"
            },
            {
              "internalType": "string",
              "name": "description",
              "type": "string"
            },
            {
              "internalType": "bool",
              "name": "unlockContent",
              "type": "bool"
            },
            {
              "internalType": "uint256",
              "name": "price",
              "type": "uint256"
            },
            {
              "internalType": "uint256",
              "name": "amount",
              "type": "uint256"
            },
            {
              "internalType": "string",
              "name": "content",
              "type": "string"
            },
            {
              "internalType": "string",
              "name": "metaUri",
              "type": "string"
            }
          ],
          "internalType": "struct TicketInfo[]",
          "name": "ticketInfo",
          "type": "tuple[]"
        },
        {
          "components": [
            {
              "internalType": "string",
              "name": "avatarColor",
              "type": "string"
            },
            {
              "internalType": "string",
              "name": "titleFont",
              "type": "string"
            },
            {
              "internalType": "string",
              "name": "subTitleFont",
              "type": "string"
            },
            {
              "internalType": "string",
              "name": "primaryColor",
              "type": "string"
            },
            {
              "internalType": "string",
              "name": "secondColor",
              "type": "string"
            },
            {
              "internalType": "string",
              "name": "tertiary",
              "type": "string"
            },
            {
              "internalType": "string",
              "name": "backgroundTitle",
              "type": "string"
            },
            {
              "internalType": "string",
              "name": "backgroundColor",
              "type": "string"
            },
            {
              "internalType": "string",
              "name": "backgroundTitleColor",
              "type": "string"
            },
            {
              "internalType": "string",
              "name": "css",
              "type": "string"
            }
          ],
          "internalType": "struct CustomStyle",
          "name": "style",
          "type": "tuple"
        }
      ],
      "name": "CreateNewEvent",
      "outputs": [
        {
          "internalType": "address",
          "name": "",
          "type": "address"
        }
      ],
      "stateMutability": "nonpayable",
      "type": "function"
    },
    {
      "inputs": [
        {
          "components": [
            {
              "internalType": "string",
              "name": "name",
              "type": "string"
            },
            {
              "internalType": "string",
              "name": "avatar",
              "type": "string"
            },
            {
              "internalType": "string",
              "name": "background",
              "type": "string"
            },
            {
              "internalType": "string",
              "name": "url",
              "type": "string"
            },
            {
              "internalType": "string",
              "name": "startTime",
              "type": "string"
            },
            {
              "internalType": "string",
              "name": "endTime",
              "type": "string"
            },
            {
              "internalType": "string",
              "name": "description",
              "type": "string"
            },
            {
              "internalType": "string",
              "name": "subTitle",
              "type": "string"
            }
          ],
          "internalType": "struct EventInfo",
          "name": "info",
          "type": "tuple"
        },
        {
          "components": [
            {
              "internalType": "uint256",
              "name": "id",
              "type": "uint256"
            },
            {
              "internalType": "string",
              "name": "name",
              "type": "string"
            },
            {
              "internalType": "string",
              "name": "image",
              "type": "string"
            },
            {
              "internalType": "string",
              "name": "description",
              "type": "string"
            },
            {
              "internalType": "bool",
              "name": "unlockContent",
              "type": "bool"
            },
            {
              "internalType": "uint256",
              "name": "price",
              "type": "uint256"
            },
            {
              "internalType": "uint256",
              "name": "amount",
              "type": "uint256"
            },
            {
              "internalType": "string",
              "name": "content",
              "type": "string"
            },
            {
              "internalType": "string",
              "name": "metaUri",
              "type": "string"
            }
          ],
          "internalType": "struct TicketInfo[]",
          "name": "ticketInfo",
          "type": "tuple[]"
        },
        {
          "components": [
            {
              "internalType": "string",
              "name": "avatarColor",
              "type": "string"
            },
            {
              "internalType": "string",
              "name": "titleFont",
              "type": "string"
            },
            {
              "internalType": "string",
              "name": "subTitleFont",
              "type": "string"
            },
            {
              "internalType": "string",
              "name": "primaryColor",
              "type": "string"
            },
            {
              "internalType": "string",
              "name": "secondColor",
              "type": "string"
            },
            {
              "internalType": "string",
              "name": "tertiary",
              "type": "string"
            },
            {
              "internalType": "string",
              "name": "backgroundTitle",
              "type": "string"
            },
            {
              "internalType": "string",
              "name": "backgroundColor",
              "type": "string"
            },
            {
              "internalType": "string",
              "name": "backgroundTitleColor",
              "type": "string"
            },
            {
              "internalType": "string",
              "name": "css",
              "type": "string"
            }
          ],
          "internalType": "struct CustomStyle",
          "name": "style",
          "type": "tuple"
        },
        {
          "internalType": "address",
          "name": "_eventAddress",
          "type": "address"
        }
      ],
      "name": "UpdateEvent",
      "outputs": [],
      "stateMutability": "nonpayable",
      "type": "function"
    },
    {
      "inputs": [
        {
          "internalType": "address",
          "name": "_eventAddress",
          "type": "address"
        },
        {
          "internalType": "address",
          "name": "_ticketAddress",
          "type": "address"
        }
      ],
      "name": "__ChiNetworkEventFactory_init",
      "outputs": [],
      "stateMutability": "nonpayable",
      "type": "function"
    },
    {
      "inputs": [],
      "name": "eventName",
      "outputs": [
        {
          "internalType": "string",
          "name": "",
          "type": "string"
        }
      ],
      "stateMutability": "view",
      "type": "function"
    },
    {
      "inputs": [
        {
          "internalType": "address",
          "name": "",
          "type": "address"
        },
        {
          "internalType": "uint256",
          "name": "",
          "type": "uint256"
        }
      ],
      "name": "events",
      "outputs": [
        {
          "internalType": "contract ChiNetworkEvent",
          "name": "",
          "type": "address"
        }
      ],
      "stateMutability": "view",
      "type": "function"
    },
    {
      "inputs": [
        {
          "internalType": "string",
          "name": "",
          "type": "string"
        }
      ],
      "name": "eventsUrl",
      "outputs": [
        {
          "internalType": "contract ChiNetworkEvent",
          "name": "",
          "type": "address"
        }
      ],
      "stateMutability": "view",
      "type": "function"
    },
    {
      "inputs": [
        {
          "internalType": "address",
          "name": "account",
          "type": "address"
        }
      ],
      "name": "getEvents",
      "outputs": [
        {
          "internalType": "contract ChiNetworkEvent[]",
          "name": "_events",
          "type": "address[]"
        }
      ],
      "stateMutability": "view",
      "type": "function"
    }
  ],
  "bytecode": "0x608060405234801561001057600080fd5b5061139e806100206000396000f3fe608060405234801561001057600080fd5b506004361061007d5760003560e01c8063a4c8b6e31161005b578063a4c8b6e3146100dc578063ace95c4d146100fc578063c249b34614610130578063e1e667691461014357600080fd5b80631fc045a81461008257806374dcdc63146100975780638043c9c0146100c7575b600080fd5b610095610090366004610d73565b610156565b005b6100aa6100a5366004610c89565b6102f5565b6040516001600160a01b0390911681526020015b60405180910390f35b6100cf61032d565b6040516100be91906111e0565b6100ef6100ea366004610c12565b6103bb565b6040516100be9190611193565b6100aa61010a366004610cb4565b80516020818301810180516002825292820191909301209152546001600160a01b031681565b6100aa61013e366004610cef565b610431565b610095610151366004610c51565b610544565b8351805161016c9160059160209091019061067b565b506000819050336001600160a01b0316816001600160a01b031663893d20e86040518163ffffffff1660e01b815260040160206040518083038186803b1580156101b557600080fd5b505afa1580156101c9573d6000803e3d6000fd5b505050506040513d601f19601f820116820180604052508101906101ed9190610c35565b6001600160a01b0316146102485760405162461bcd60e51b815260206004820181905260248201527f4f776e61626c653a2063616c6c6572206973206e6f7420746865206f776e657260448201526064015b60405180910390fd5b6040516312854c3560e11b81526001600160a01b0382169063250a986a90610278908890889088906004016111f3565b600060405180830381600087803b15801561029257600080fd5b505af11580156102a6573d6000803e3d6000fd5b5050505080600286606001516040516102bf9190611119565b90815260405190819003602001902080546001600160a01b03929092166001600160a01b03199092169190911790555050505050565b6001602052816000526040600020818154811061031157600080fd5b6000918252602090912001546001600160a01b03169150829050565b6005805461033a906112ff565b80601f0160208091040260200160405190810160405280929190818152602001828054610366906112ff565b80156103b35780601f10610388576101008083540402835291602001916103b3565b820191906000526020600020905b81548152906001019060200180831161039657829003601f168201915b505050505081565b6001600160a01b03811660009081526001602090815260409182902080548351818402810184019094528084526060939283018282801561042557602002820191906000526020600020905b81546001600160a01b03168152600190910190602001808311610407575b50505050509050919050565b82518051600091610448916005916020019061067b565b50600354600090610461906001600160a01b0316610629565b6004805460405163f7970f5760e01b81529293506001600160a01b038085169363f7970f579361049d939092169133918b918b918b9101611135565b600060405180830381600087803b1580156104b757600080fd5b505af11580156104cb573d6000803e3d6000fd5b5050505080600286606001516040516104e49190611119565b908152604080516020928190038301902080546001600160a01b03199081166001600160a01b0395861617909155336000908152600180855292812080549384018155815292909220018054909116918316919091179055949350505050565b600054610100900460ff168061055d575060005460ff16155b6105c05760405162461bcd60e51b815260206004820152602e60248201527f496e697469616c697a61626c653a20636f6e747261637420697320616c72656160448201526d191e481a5b9a5d1a585b1a5e995960921b606482015260840161023f565b600054610100900460ff161580156105e2576000805461ffff19166101011790555b600380546001600160a01b038086166001600160a01b03199283161790925560048054928516929091169190911790558015610624576000805461ff00191690555b505050565b6000808260601b9050604051733d602d80600a3d3981f3363d3d373d3d3d363d7360601b81528160148201526e5af43d82803e903d91602b57fd5bf360881b60288201526037816000f0949350505050565b828054610687906112ff565b90600052602060002090601f0160209004810192826106a957600085556106ef565b82601f106106c257805160ff19168380011785556106ef565b828001600101855582156106ef579182015b828111156106ef5782518255916020019190600101906106d4565b506106fb9291506106ff565b5090565b5b808211156106fb5760008155600101610700565b600082601f830112610724578081fd5b8135602067ffffffffffffffff808311156107415761074161133a565b8260051b61075083820161129e565b8481528381019087850183890186018a101561076a578788fd5b8793505b868410156107a757803585811115610784578889fd5b6107928b88838d0101610b1c565b8452506001939093019291850191850161076e565b5098975050505050505050565b803580151581146107c457600080fd5b919050565b600082601f8301126107d9578081fd5b813567ffffffffffffffff8111156107f3576107f361133a565b610806601f8201601f191660200161129e565b81815284602083860101111561081a578283fd5b816020850160208301379081016020019190915292915050565b60006101408284031215610846578081fd5b61084e61122c565b9050813567ffffffffffffffff8082111561086857600080fd5b610874858386016107c9565b8352602084013591508082111561088a57600080fd5b610896858386016107c9565b602084015260408401359150808211156108af57600080fd5b6108bb858386016107c9565b604084015260608401359150808211156108d457600080fd5b6108e0858386016107c9565b606084015260808401359150808211156108f957600080fd5b610905858386016107c9565b608084015260a084013591508082111561091e57600080fd5b61092a858386016107c9565b60a084015260c084013591508082111561094357600080fd5b61094f858386016107c9565b60c084015260e084013591508082111561096857600080fd5b610974858386016107c9565b60e08401526101009150818401358181111561098f57600080fd5b61099b868287016107c9565b8385015250610120915081840135818111156109b657600080fd5b6109c2868287016107c9565b8385015250505092915050565b600061010082840312156109e1578081fd5b6109e9611256565b9050813567ffffffffffffffff80821115610a0357600080fd5b610a0f858386016107c9565b83526020840135915080821115610a2557600080fd5b610a31858386016107c9565b60208401526040840135915080821115610a4a57600080fd5b610a56858386016107c9565b60408401526060840135915080821115610a6f57600080fd5b610a7b858386016107c9565b60608401526080840135915080821115610a9457600080fd5b610aa0858386016107c9565b608084015260a0840135915080821115610ab957600080fd5b610ac5858386016107c9565b60a084015260c0840135915080821115610ade57600080fd5b610aea858386016107c9565b60c084015260e0840135915080821115610b0357600080fd5b50610b10848285016107c9565b60e08301525092915050565b60006101208284031215610b2e578081fd5b610b3661127a565b905081358152602082013567ffffffffffffffff80821115610b5757600080fd5b610b63858386016107c9565b60208401526040840135915080821115610b7c57600080fd5b610b88858386016107c9565b60408401526060840135915080821115610ba157600080fd5b610bad858386016107c9565b6060840152610bbe608085016107b4565b608084015260a084013560a084015260c084013560c084015260e0840135915080821115610beb57600080fd5b610bf7858386016107c9565b60e0840152610100915081840135818111156109b657600080fd5b600060208284031215610c23578081fd5b8135610c2e81611350565b9392505050565b600060208284031215610c46578081fd5b8151610c2e81611350565b60008060408385031215610c63578081fd5b8235610c6e81611350565b91506020830135610c7e81611350565b809150509250929050565b60008060408385031215610c9b578182fd5b8235610ca681611350565b946020939093013593505050565b600060208284031215610cc5578081fd5b813567ffffffffffffffff811115610cdb578182fd5b610ce7848285016107c9565b949350505050565b600080600060608486031215610d03578081fd5b833567ffffffffffffffff80821115610d1a578283fd5b610d26878388016109cf565b94506020860135915080821115610d3b578283fd5b610d4787838801610714565b93506040860135915080821115610d5c578283fd5b50610d6986828701610834565b9150509250925092565b60008060008060808587031215610d88578081fd5b843567ffffffffffffffff80821115610d9f578283fd5b610dab888389016109cf565b95506020870135915080821115610dc0578283fd5b610dcc88838901610714565b94506040870135915080821115610de1578283fd5b50610dee87828801610834565b9250506060850135610dff81611350565b939692955090935050565b600081518084526020808501808196508360051b81019150828601855b85811015610efe578284038952815161012081518652868201518188880152610e5282880182610f0b565b91505060408083015187830382890152610e6c8382610f0b565b9250505060608083015187830382890152610e878382610f0b565b92505050608080830151610e9e8289018215159052565b505060a0828101519087015260c0808301519087015260e08083015187830382890152610ecb8382610f0b565b925050506101008083015192508682038188015250610eea8183610f0b565b9a87019a9550505090840190600101610e27565b5091979650505050505050565b60008151808452610f238160208601602086016112cf565b601f01601f19169290920160200192915050565b60006101408251818552610f4d82860182610f0b565b91505060208301518482036020860152610f678282610f0b565b91505060408301518482036040860152610f818282610f0b565b91505060608301518482036060860152610f9b8282610f0b565b91505060808301518482036080860152610fb58282610f0b565b91505060a083015184820360a0860152610fcf8282610f0b565b91505060c083015184820360c0860152610fe98282610f0b565b91505060e083015184820360e08601526110038282610f0b565b915050610100808401518583038287015261101e8382610f0b565b92505050610120808401518583038287015261103a8382610f0b565b9695505050505050565b6000610100825181855261105a82860182610f0b565b915050602083015184820360208601526110748282610f0b565b9150506040830151848203604086015261108e8282610f0b565b915050606083015184820360608601526110a88282610f0b565b915050608083015184820360808601526110c28282610f0b565b91505060a083015184820360a08601526110dc8282610f0b565b91505060c083015184820360c08601526110f68282610f0b565b91505060e083015184820360e08601526111108282610f0b565b95945050505050565b6000825161112b8184602087016112cf565b9190910192915050565b6001600160a01b0386811682528516602082015260a06040820181905260009061116190830186611044565b82810360608401526111738186610e0a565b905082810360808401526111878185610f37565b98975050505050505050565b6020808252825182820181905260009190848201906040850190845b818110156111d45783516001600160a01b0316835292840192918401916001016111af565b50909695505050505050565b602081526000610c2e6020830184610f0b565b6060815260006112066060830186611044565b82810360208401526112188186610e0a565b9050828103604084015261103a8185610f37565b604051610140810167ffffffffffffffff811182821017156112505761125061133a565b60405290565b604051610100810167ffffffffffffffff811182821017156112505761125061133a565b604051610120810167ffffffffffffffff811182821017156112505761125061133a565b604051601f8201601f1916810167ffffffffffffffff811182821017156112c7576112c761133a565b604052919050565b60005b838110156112ea5781810151838201526020016112d2565b838111156112f9576000848401525b50505050565b600181811c9082168061131357607f821691505b6020821081141561133457634e487b7160e01b600052602260045260246000fd5b50919050565b634e487b7160e01b600052604160045260246000fd5b6001600160a01b038116811461136557600080fd5b5056fea26469706673582212205eaf48a8d57cd1a66ff7cf6b3a0b907ad6206417f21b023e02c86856bab1e92064736f6c63430008040033",
  "linkReferences": {},
  "deployedLinkReferences": {}
}