{
  "_format": "hh-sol-artifact-1",
  "contractName": "EventXToken",
  "sourceName": "src/active/EventXToken.sol",
  "abi": [
    {
      "anonymous": false,
      "inputs": [
        {
          "indexed": true,
          "internalType": "address",
          "name": "owner",
          "type": "address"
        },
        {
          "indexed": true,
          "internalType": "address",
          "name": "spender",
          "type": "address"
        },
        {
          "indexed": false,
          "internalType": "uint256",
          "name": "value",
          "type": "uint256"
        }
      ],
      "name": "Approval",
      "type": "event"
    },
    {
      "anonymous": false,
      "inputs": [
        {
          "indexed": true,
          "internalType": "address",
          "name": "previousOwner",
          "type": "address"
        },
        {
          "indexed": true,
          "internalType": "address",
          "name": "newOwner",
          "type": "address"
        }
      ],
      "name": "OwnershipTransferred",
      "type": "event"
    },
    {
      "anonymous": false,
      "inputs": [
        {
          "indexed": true,
          "internalType": "bytes32",
          "name": "role",
          "type": "bytes32"
        },
        {
          "indexed": true,
          "internalType": "bytes32",
          "name": "previousAdminRole",
          "type": "bytes32"
        },
        {
          "indexed": true,
          "internalType": "bytes32",
          "name": "newAdminRole",
          "type": "bytes32"
        }
      ],
      "name": "RoleAdminChanged",
      "type": "event"
    },
    {
      "anonymous": false,
      "inputs": [
        {
          "indexed": true,
          "internalType": "bytes32",
          "name": "role",
          "type": "bytes32"
        },
        {
          "indexed": true,
          "internalType": "address",
          "name": "account",
          "type": "address"
        },
        {
          "indexed": true,
          "internalType": "address",
          "name": "sender",
          "type": "address"
        }
      ],
      "name": "RoleGranted",
      "type": "event"
    },
    {
      "anonymous": false,
      "inputs": [
        {
          "indexed": true,
          "internalType": "bytes32",
          "name": "role",
          "type": "bytes32"
        },
        {
          "indexed": true,
          "internalType": "address",
          "name": "account",
          "type": "address"
        },
        {
          "indexed": true,
          "internalType": "address",
          "name": "sender",
          "type": "address"
        }
      ],
      "name": "RoleRevoked",
      "type": "event"
    },
    {
      "anonymous": false,
      "inputs": [
        {
          "indexed": true,
          "internalType": "address",
          "name": "from",
          "type": "address"
        },
        {
          "indexed": true,
          "internalType": "address",
          "name": "to",
          "type": "address"
        },
        {
          "indexed": false,
          "internalType": "uint256",
          "name": "value",
          "type": "uint256"
        }
      ],
      "name": "Transfer",
      "type": "event"
    },
    {
      "inputs": [],
      "name": "BURNER_ROLE",
      "outputs": [
        {
          "internalType": "bytes32",
          "name": "",
          "type": "bytes32"
        }
      ],
      "stateMutability": "view",
      "type": "function"
    },
    {
      "inputs": [],
      "name": "DEFAULT_ADMIN_ROLE",
      "outputs": [
        {
          "internalType": "bytes32",
          "name": "",
          "type": "bytes32"
        }
      ],
      "stateMutability": "view",
      "type": "function"
    },
    {
      "inputs": [],
      "name": "MINTER_ROLE",
      "outputs": [
        {
          "internalType": "bytes32",
          "name": "",
          "type": "bytes32"
        }
      ],
      "stateMutability": "view",
      "type": "function"
    },
    {
      "inputs": [
        {
          "internalType": "string",
          "name": "name_",
          "type": "string"
        },
        {
          "internalType": "string",
          "name": "symbol_",
          "type": "string"
        },
        {
          "internalType": "uint8",
          "name": "decimals_",
          "type": "uint8"
        },
        {
          "internalType": "uint256",
          "name": "initialSupply_",
          "type": "uint256"
        }
      ],
      "name": "__ERC20Token_init",
      "outputs": [],
      "stateMutability": "nonpayable",
      "type": "function"
    },
    {
      "inputs": [],
      "name": "__EventXToken_init",
      "outputs": [],
      "stateMutability": "nonpayable",
      "type": "function"
    },
    {
      "inputs": [
        {
          "internalType": "address",
          "name": "owner",
          "type": "address"
        },
        {
          "internalType": "address",
          "name": "spender",
          "type": "address"
        }
      ],
      "name": "allowance",
      "outputs": [
        {
          "internalType": "uint256",
          "name": "",
          "type": "uint256"
        }
      ],
      "stateMutability": "view",
      "type": "function"
    },
    {
      "inputs": [
        {
          "internalType": "address",
          "name": "spender",
          "type": "address"
        },
        {
          "internalType": "uint256",
          "name": "amount",
          "type": "uint256"
        }
      ],
      "name": "approve",
      "outputs": [
        {
          "internalType": "bool",
          "name": "",
          "type": "bool"
        }
      ],
      "stateMutability": "nonpayable",
      "type": "function"
    },
    {
      "inputs": [
        {
          "internalType": "address",
          "name": "account",
          "type": "address"
        }
      ],
      "name": "balanceOf",
      "outputs": [
        {
          "internalType": "uint256",
          "name": "",
          "type": "uint256"
        }
      ],
      "stateMutability": "view",
      "type": "function"
    },
    {
      "inputs": [
        {
          "internalType": "uint256",
          "name": "_amount",
          "type": "uint256"
        }
      ],
      "name": "burn",
      "outputs": [],
      "stateMutability": "nonpayable",
      "type": "function"
    },
    {
      "inputs": [
        {
          "internalType": "address",
          "name": "_account",
          "type": "address"
        },
        {
          "internalType": "uint256",
          "name": "_amount",
          "type": "uint256"
        }
      ],
      "name": "burnFrom",
      "outputs": [],
      "stateMutability": "nonpayable",
      "type": "function"
    },
    {
      "inputs": [],
      "name": "decimals",
      "outputs": [
        {
          "internalType": "uint8",
          "name": "",
          "type": "uint8"
        }
      ],
      "stateMutability": "view",
      "type": "function"
    },
    {
      "inputs": [
        {
          "internalType": "address",
          "name": "spender",
          "type": "address"
        },
        {
          "internalType": "uint256",
          "name": "subtractedValue",
          "type": "uint256"
        }
      ],
      "name": "decreaseAllowance",
      "outputs": [
        {
          "internalType": "bool",
          "name": "",
          "type": "bool"
        }
      ],
      "stateMutability": "nonpayable",
      "type": "function"
    },
    {
      "inputs": [
        {
          "internalType": "bytes32",
          "name": "role",
          "type": "bytes32"
        }
      ],
      "name": "getRoleAdmin",
      "outputs": [
        {
          "internalType": "bytes32",
          "name": "",
          "type": "bytes32"
        }
      ],
      "stateMutability": "view",
      "type": "function"
    },
    {
      "inputs": [
        {
          "internalType": "bytes32",
          "name": "role",
          "type": "bytes32"
        },
        {
          "internalType": "address",
          "name": "account",
          "type": "address"
        }
      ],
      "name": "grantRole",
      "outputs": [],
      "stateMutability": "nonpayable",
      "type": "function"
    },
    {
      "inputs": [
        {
          "internalType": "bytes32",
          "name": "role",
          "type": "bytes32"
        },
        {
          "internalType": "address",
          "name": "account",
          "type": "address"
        }
      ],
      "name": "hasRole",
      "outputs": [
        {
          "internalType": "bool",
          "name": "",
          "type": "bool"
        }
      ],
      "stateMutability": "view",
      "type": "function"
    },
    {
      "inputs": [
        {
          "internalType": "address",
          "name": "spender",
          "type": "address"
        },
        {
          "internalType": "uint256",
          "name": "addedValue",
          "type": "uint256"
        }
      ],
      "name": "increaseAllowance",
      "outputs": [
        {
          "internalType": "bool",
          "name": "",
          "type": "bool"
        }
      ],
      "stateMutability": "nonpayable",
      "type": "function"
    },
    {
      "inputs": [
        {
          "internalType": "address",
          "name": "_account",
          "type": "address"
        },
        {
          "internalType": "uint256",
          "name": "_amount",
          "type": "uint256"
        }
      ],
      "name": "mint",
      "outputs": [],
      "stateMutability": "nonpayable",
      "type": "function"
    },
    {
      "inputs": [],
      "name": "name",
      "outputs": [
        {
          "internalType": "string",
          "name": "",
          "type": "string"
        }
      ],
      "stateMutability": "view",
      "type": "function"
    },
    {
      "inputs": [],
      "name": "owner",
      "outputs": [
        {
          "internalType": "address",
          "name": "",
          "type": "address"
        }
      ],
      "stateMutability": "view",
      "type": "function"
    },
    {
      "inputs": [],
      "name": "presenter",
      "outputs": [
        {
          "internalType": "address",
          "name": "",
          "type": "address"
        }
      ],
      "stateMutability": "view",
      "type": "function"
    },
    {
      "inputs": [],
      "name": "renounceOwnership",
      "outputs": [],
      "stateMutability": "nonpayable",
      "type": "function"
    },
    {
      "inputs": [
        {
          "internalType": "bytes32",
          "name": "role",
          "type": "bytes32"
        },
        {
          "internalType": "address",
          "name": "account",
          "type": "address"
        }
      ],
      "name": "renounceRole",
      "outputs": [],
      "stateMutability": "nonpayable",
      "type": "function"
    },
    {
      "inputs": [
        {
          "internalType": "bytes32",
          "name": "role",
          "type": "bytes32"
        },
        {
          "internalType": "address",
          "name": "account",
          "type": "address"
        }
      ],
      "name": "revokeRole",
      "outputs": [],
      "stateMutability": "nonpayable",
      "type": "function"
    },
    {
      "inputs": [
        {
          "internalType": "address",
          "name": "_presenter",
          "type": "address"
        }
      ],
      "name": "setPresenter",
      "outputs": [],
      "stateMutability": "nonpayable",
      "type": "function"
    },
    {
      "inputs": [
        {
          "internalType": "bytes4",
          "name": "interfaceId",
          "type": "bytes4"
        }
      ],
      "name": "supportsInterface",
      "outputs": [
        {
          "internalType": "bool",
          "name": "",
          "type": "bool"
        }
      ],
      "stateMutability": "view",
      "type": "function"
    },
    {
      "inputs": [],
      "name": "symbol",
      "outputs": [
        {
          "internalType": "string",
          "name": "",
          "type": "string"
        }
      ],
      "stateMutability": "view",
      "type": "function"
    },
    {
      "inputs": [],
      "name": "totalSupply",
      "outputs": [
        {
          "internalType": "uint256",
          "name": "",
          "type": "uint256"
        }
      ],
      "stateMutability": "view",
      "type": "function"
    },
    {
      "inputs": [
        {
          "internalType": "address",
          "name": "recipient",
          "type": "address"
        },
        {
          "internalType": "uint256",
          "name": "amount",
          "type": "uint256"
        }
      ],
      "name": "transfer",
      "outputs": [
        {
          "internalType": "bool",
          "name": "",
          "type": "bool"
        }
      ],
      "stateMutability": "nonpayable",
      "type": "function"
    },
    {
      "inputs": [
        {
          "internalType": "address",
          "name": "_tokenAddress",
          "type": "address"
        },
        {
          "internalType": "address",
          "name": "_to",
          "type": "address"
        },
        {
          "internalType": "uint256",
          "name": "_amount",
          "type": "uint256"
        }
      ],
      "name": "transferAnyERC20Token",
      "outputs": [
        {
          "internalType": "bool",
          "name": "success",
          "type": "bool"
        }
      ],
      "stateMutability": "nonpayable",
      "type": "function"
    },
    {
      "inputs": [
        {
          "internalType": "address",
          "name": "sender",
          "type": "address"
        },
        {
          "internalType": "address",
          "name": "recipient",
          "type": "address"
        },
        {
          "internalType": "uint256",
          "name": "amount",
          "type": "uint256"
        }
      ],
      "name": "transferFrom",
      "outputs": [
        {
          "internalType": "bool",
          "name": "",
          "type": "bool"
        }
      ],
      "stateMutability": "nonpayable",
      "type": "function"
    },
    {
      "inputs": [
        {
          "internalType": "address",
          "name": "newOwner",
          "type": "address"
        }
      ],
      "name": "transferOwnership",
      "outputs": [],
      "stateMutability": "nonpayable",
      "type": "function"
    }
  ],
  "bytecode": "0x608060405234801561001057600080fd5b50612033806100206000396000f3fe608060405234801561001057600080fd5b50600436106101e55760003560e01c806370a082311161010f578063a9059cbb116100a2578063dd62ed3e11610071578063dd62ed3e14610452578063e4b39b9b1461048b578063eacfaa1914610493578063f2fde38b146104a657600080fd5b8063a9059cbb146103f2578063d493b9ac14610405578063d539139314610418578063d547741f1461043f57600080fd5b806391d14854116100de57806391d14854146103bc57806395d89b41146103cf578063a217fddf146103d7578063a457c2d7146103df57600080fd5b806370a0823114610367578063715018a61461039057806379cc6790146103985780638da5cb5b146103ab57600080fd5b8063282c51f31161018757806337ba4fda1161015657806337ba4fda1461031b578063395093511461032e57806340c10f191461034157806342966c681461035457600080fd5b8063282c51f3146102ad5780632f2ff15d146102d4578063313ce567146102e957806336568abe1461030857600080fd5b806318160ddd116101c357806318160ddd1461023a57806318fc882a1461024c57806323b872dd14610277578063248a9ca31461028a57600080fd5b806301ffc9a7146101ea57806306fdde0314610212578063095ea7b314610227575b600080fd5b6101fd6101f8366004611c47565b6104b9565b60405190151581526020015b60405180910390f35b61021a6104f0565b6040516102099190611d64565b6101fd610235366004611bc4565b610582565b6035545b604051908152602001610209565b60975461025f906001600160a01b031681565b6040516001600160a01b039091168152602001610209565b6101fd610285366004611b89565b610598565b61023e610298366004611c0d565b600090815260ca602052604090206001015490565b61023e7f3c11d16cbaffd01df69ce1c404f6340ee057498f5f00246190ea54220576a84881565b6102e76102e2366004611c25565b610647565b005b609754600160a01b900460ff1660405160ff9091168152602001610209565b6102e7610316366004611c25565b610672565b6102e7610329366004611c6f565b6106f0565b6101fd61033c366004611bc4565b6107ab565b6102e761034f366004611bc4565b6107e7565b6102e7610362366004611c0d565b6107fd565b61023e610375366004611b3d565b6001600160a01b031660009081526033602052604090205490565b6102e761080a565b6102e76103a6366004611bc4565b610840565b6065546001600160a01b031661025f565b6101fd6103ca366004611c25565b6108b7565b61021a6108e2565b61023e600081565b6101fd6103ed366004611bc4565b6108f1565b6101fd610400366004611bc4565b61098a565b6101fd610413366004611b89565b610997565b61023e7f9f2df0fed2c77648de5860a4cc508cd0818c85b8b8a1ab4ceeef8d981c8956a681565b6102e761044d366004611c25565b610a4e565b61023e610460366004611b57565b6001600160a01b03918216600090815260346020908152604080832093909416825291909152205490565b6102e7610a74565b6102e76104a1366004611b3d565b610b8c565b6102e76104b4366004611b3d565b610bd8565b60006001600160e01b03198216637965db0b60e01b14806104ea57506301ffc9a760e01b6001600160e01b03198316145b92915050565b6060603680546104ff90611f96565b80601f016020809104026020016040519081016040528092919081815260200182805461052b90611f96565b80156105785780601f1061054d57610100808354040283529160200191610578565b820191906000526020600020905b81548152906001019060200180831161055b57829003601f168201915b5050505050905090565b600061058f338484610c70565b50600192915050565b60006105a5848484610d94565b6001600160a01b03841660009081526034602090815260408083203384529091529020548281101561062f5760405162461bcd60e51b815260206004820152602860248201527f45524332303a207472616e7366657220616d6f756e74206578636565647320616044820152676c6c6f77616e636560c01b60648201526084015b60405180910390fd5b61063c8533858403610c70565b506001949350505050565b600082815260ca60205260409020600101546106638133610ecf565b61066d8383610f33565b505050565b6001600160a01b03811633146106e25760405162461bcd60e51b815260206004820152602f60248201527f416363657373436f6e74726f6c3a2063616e206f6e6c792072656e6f756e636560448201526e103937b632b9903337b91039b2b63360891b6064820152608401610626565b6106ec8282610fb9565b5050565b600054610100900460ff1680610709575060005460ff16155b6107255760405162461bcd60e51b815260040161062690611d97565b600054610100900460ff16158015610747576000805461ffff19166101011790555b61074f611020565b6107598585611087565b6097805460ff60a01b1916600160a01b60ff8616021790556107923361078360ff8616600a611e75565b61078d9085611f1d565b611106565b80156107a4576000805461ff00191690555b5050505050565b3360008181526034602090815260408083206001600160a01b0387168452909152812054909161058f9185906107e2908690611e1a565b610c70565b60006107f38133610ecf565b61066d8383611106565b61080733826111e5565b50565b6065546001600160a01b031633146108345760405162461bcd60e51b815260040161062690611de5565b61083e6000611333565b565b600061084c8333610460565b90508181101561089e5760405162461bcd60e51b815260206004820152601d60248201527f4275726e20616d6f756e74206578636565647320616c6c6f77616e63650000006044820152606401610626565b6108ad83336107e28585611f3c565b61066d83836111e5565b600091825260ca602090815260408084206001600160a01b0393909316845291905290205460ff1690565b6060603780546104ff90611f96565b3360009081526034602090815260408083206001600160a01b0386168452909152812054828110156109735760405162461bcd60e51b815260206004820152602560248201527f45524332303a2064656372656173656420616c6c6f77616e63652062656c6f77604482015264207a65726f60d81b6064820152608401610626565b6109803385858403610c70565b5060019392505050565b600061058f338484610d94565b6065546000906001600160a01b031633146109c45760405162461bcd60e51b815260040161062690611de5565b60405163a9059cbb60e01b81526001600160a01b0384811660048301526024820184905285169063a9059cbb90604401602060405180830381600087803b158015610a0e57600080fd5b505af1158015610a22573d6000803e3d6000fd5b505050506040513d601f19601f82011682018060405250810190610a469190611bed565b949350505050565b600082815260ca6020526040902060010154610a6a8133610ecf565b61066d8383610fb9565b600054610100900460ff1680610a8d575060005460ff16155b610aa95760405162461bcd60e51b815260040161062690611d97565b600054610100900460ff16158015610acb576000805461ffff19166101011790555b610ad3611385565b610b1d6040518060400160405280600b81526020016a22bb32b73a2c2a37b5b2b760a91b815250604051806040016040528060058152602001640312e302e360dc1b8152506113f4565b610b6d6040518060400160405280600b81526020016a22bb32b73a2c2a37b5b2b760a91b8152506040518060400160405280600481526020016308aaca8b60e31b8152506012633b9aca006106f0565b610b78600033611455565b8015610807576000805461ff001916905550565b6065546001600160a01b03163314610bb65760405162461bcd60e51b815260040161062690611de5565b609780546001600160a01b0319166001600160a01b0392909216919091179055565b6065546001600160a01b03163314610c025760405162461bcd60e51b815260040161062690611de5565b6001600160a01b038116610c675760405162461bcd60e51b815260206004820152602660248201527f4f776e61626c653a206e6577206f776e657220697320746865207a65726f206160448201526564647265737360d01b6064820152608401610626565b61080781611333565b6001600160a01b038316610cd25760405162461bcd60e51b8152602060048201526024808201527f45524332303a20617070726f76652066726f6d20746865207a65726f206164646044820152637265737360e01b6064820152608401610626565b6001600160a01b038216610d335760405162461bcd60e51b815260206004820152602260248201527f45524332303a20617070726f766520746f20746865207a65726f206164647265604482015261737360f01b6064820152608401610626565b6001600160a01b0383811660008181526034602090815260408083209487168084529482529182902085905590518481527f8c5be1e5ebec7d5bd14f71427d1e84f3dd0314c0f7b2291e5b200ac8c7c3b925910160405180910390a3505050565b6097546001600160a01b031615801590610db957506097546001600160a01b03163314155b15610ec457609754610dd69084906001600160a01b03168361145f565b6097546001600160a01b031663493d8002336040516001600160e01b031960e084901b1681526001600160a01b0391821660048201528187166024820152908516604482015260648101849052608401602060405180830381600087803b158015610e4057600080fd5b505af1158015610e54573d6000803e3d6000fd5b505050506040513d601f19601f82011682018060405250810190610e789190611bed565b61066d5760405162461bcd60e51b815260206004820152601a60248201527f4552433230546f6b656e3a207472616e73666572206572726f720000000000006044820152606401610626565b61066d83838361145f565b610ed982826108b7565b6106ec57610ef1816001600160a01b0316601461162f565b610efc83602061162f565b604051602001610f0d929190611cef565b60408051601f198184030181529082905262461bcd60e51b825261062691600401611d64565b610f3d82826108b7565b6106ec57600082815260ca602090815260408083206001600160a01b03851684529091529020805460ff19166001179055610f753390565b6001600160a01b0316816001600160a01b0316837f2f8788117e7eff1d82e926ec794901d17c78024a50270940304540a733656f0d60405160405180910390a45050565b610fc382826108b7565b156106ec57600082815260ca602090815260408083206001600160a01b0385168085529252808320805460ff1916905551339285917ff6391f5c32d9c69d2a47ea670b442974b53935d1edc7fd64eb21e047a839171b9190a45050565b600054610100900460ff1680611039575060005460ff16155b6110555760405162461bcd60e51b815260040161062690611d97565b600054610100900460ff16158015611077576000805461ffff19166101011790555b61107f611818565b610b78611882565b600054610100900460ff16806110a0575060005460ff16155b6110bc5760405162461bcd60e51b815260040161062690611d97565b600054610100900460ff161580156110de576000805461ffff19166101011790555b6110e6611818565b6110f083836118e2565b801561066d576000805461ff0019169055505050565b6001600160a01b03821661115c5760405162461bcd60e51b815260206004820152601f60248201527f45524332303a206d696e7420746f20746865207a65726f2061646472657373006044820152606401610626565b806035600082825461116e9190611e1a565b90915550506001600160a01b0382166000908152603360205260408120805483929061119b908490611e1a565b90915550506040518181526001600160a01b038316906000907fddf252ad1be2c89b69c2b068fc378daa952ba7f163c4a11628f55a4df523b3ef9060200160405180910390a35050565b6001600160a01b0382166112455760405162461bcd60e51b815260206004820152602160248201527f45524332303a206275726e2066726f6d20746865207a65726f206164647265736044820152607360f81b6064820152608401610626565b6001600160a01b038216600090815260336020526040902054818110156112b95760405162461bcd60e51b815260206004820152602260248201527f45524332303a206275726e20616d6f756e7420657863656564732062616c616e604482015261636560f01b6064820152608401610626565b6001600160a01b03831660009081526033602052604081208383039055603580548492906112e8908490611f3c565b90915550506040518281526000906001600160a01b038516907fddf252ad1be2c89b69c2b068fc378daa952ba7f163c4a11628f55a4df523b3ef9060200160405180910390a3505050565b606580546001600160a01b038381166001600160a01b0319831681179093556040519116919082907f8be0079c531659141344cd1fd0a4f28419497f9722a3daafe3b4186f6b6457e090600090a35050565b600054610100900460ff168061139e575060005460ff16155b6113ba5760405162461bcd60e51b815260040161062690611d97565b600054610100900460ff161580156113dc576000805461ffff19166101011790555b6113e4611818565b6113ec611818565b610b78611818565b600054610100900460ff168061140d575060005460ff16155b6114295760405162461bcd60e51b815260040161062690611d97565b600054610100900460ff1615801561144b576000805461ffff19166101011790555b6110f08383611977565b6106ec8282610f33565b6001600160a01b0383166114c35760405162461bcd60e51b815260206004820152602560248201527f45524332303a207472616e736665722066726f6d20746865207a65726f206164604482015264647265737360d81b6064820152608401610626565b6001600160a01b0382166115255760405162461bcd60e51b815260206004820152602360248201527f45524332303a207472616e7366657220746f20746865207a65726f206164647260448201526265737360e81b6064820152608401610626565b6001600160a01b0383166000908152603360205260409020548181101561159d5760405162461bcd60e51b815260206004820152602660248201527f45524332303a207472616e7366657220616d6f756e7420657863656564732062604482015265616c616e636560d01b6064820152608401610626565b6001600160a01b038085166000908152603360205260408082208585039055918516815290812080548492906115d4908490611e1a565b92505081905550826001600160a01b0316846001600160a01b03167fddf252ad1be2c89b69c2b068fc378daa952ba7f163c4a11628f55a4df523b3ef8460405161162091815260200190565b60405180910390a35b50505050565b6060600061163e836002611f1d565b611649906002611e1a565b67ffffffffffffffff81111561166f57634e487b7160e01b600052604160045260246000fd5b6040519080825280601f01601f191660200182016040528015611699576020820181803683370190505b509050600360fc1b816000815181106116c257634e487b7160e01b600052603260045260246000fd5b60200101906001600160f81b031916908160001a905350600f60fb1b816001815181106116ff57634e487b7160e01b600052603260045260246000fd5b60200101906001600160f81b031916908160001a9053506000611723846002611f1d565b61172e906001611e1a565b90505b60018111156117c2576f181899199a1a9b1b9c1cb0b131b232b360811b85600f166010811061177057634e487b7160e01b600052603260045260246000fd5b1a60f81b82828151811061179457634e487b7160e01b600052603260045260246000fd5b60200101906001600160f81b031916908160001a90535060049490941c936117bb81611f7f565b9050611731565b5083156118115760405162461bcd60e51b815260206004820181905260248201527f537472696e67733a20686578206c656e67746820696e73756666696369656e746044820152606401610626565b9392505050565b600054610100900460ff1680611831575060005460ff16155b61184d5760405162461bcd60e51b815260040161062690611d97565b600054610100900460ff16158015610b78576000805461ffff19166101011790558015610807576000805461ff001916905550565b600054610100900460ff168061189b575060005460ff16155b6118b75760405162461bcd60e51b815260040161062690611d97565b600054610100900460ff161580156118d9576000805461ffff19166101011790555b610b7833611333565b600054610100900460ff16806118fb575060005460ff16155b6119175760405162461bcd60e51b815260040161062690611d97565b600054610100900460ff16158015611939576000805461ffff19166101011790555b825161194c906036906020860190611a01565b508151611960906037906020850190611a01565b50801561066d576000805461ff0019169055505050565b600054610100900460ff1680611990575060005460ff16155b6119ac5760405162461bcd60e51b815260040161062690611d97565b600054610100900460ff161580156119ce576000805461ffff19166101011790555b825160208085019190912083519184019190912060fc9190915560fd55801561066d576000805461ff0019169055505050565b828054611a0d90611f96565b90600052602060002090601f016020900481019282611a2f5760008555611a75565b82601f10611a4857805160ff1916838001178555611a75565b82800160010185558215611a75579182015b82811115611a75578251825591602001919060010190611a5a565b50611a81929150611a85565b5090565b5b80821115611a815760008155600101611a86565b80356001600160a01b0381168114611ab157600080fd5b919050565b600082601f830112611ac6578081fd5b813567ffffffffffffffff80821115611ae157611ae1611fe7565b604051601f8301601f19908116603f01168101908282118183101715611b0957611b09611fe7565b81604052838152866020858801011115611b21578485fd5b8360208701602083013792830160200193909352509392505050565b600060208284031215611b4e578081fd5b61181182611a9a565b60008060408385031215611b69578081fd5b611b7283611a9a565b9150611b8060208401611a9a565b90509250929050565b600080600060608486031215611b9d578081fd5b611ba684611a9a565b9250611bb460208501611a9a565b9150604084013590509250925092565b60008060408385031215611bd6578182fd5b611bdf83611a9a565b946020939093013593505050565b600060208284031215611bfe578081fd5b81518015158114611811578182fd5b600060208284031215611c1e578081fd5b5035919050565b60008060408385031215611c37578182fd5b82359150611b8060208401611a9a565b600060208284031215611c58578081fd5b81356001600160e01b031981168114611811578182fd5b60008060008060808587031215611c84578081fd5b843567ffffffffffffffff80821115611c9b578283fd5b611ca788838901611ab6565b95506020870135915080821115611cbc578283fd5b50611cc987828801611ab6565b935050604085013560ff81168114611cdf578182fd5b9396929550929360600135925050565b7f416363657373436f6e74726f6c3a206163636f756e7420000000000000000000815260008351611d27816017850160208801611f53565b7001034b99036b4b9b9b4b733903937b6329607d1b6017918401918201528351611d58816028840160208801611f53565b01602801949350505050565b6020815260008251806020840152611d83816040850160208701611f53565b601f01601f19169190910160400192915050565b6020808252602e908201527f496e697469616c697a61626c653a20636f6e747261637420697320616c72656160408201526d191e481a5b9a5d1a585b1a5e995960921b606082015260800190565b6020808252818101527f4f776e61626c653a2063616c6c6572206973206e6f7420746865206f776e6572604082015260600190565b60008219821115611e2d57611e2d611fd1565b500190565b600181815b80851115611e6d578160001904821115611e5357611e53611fd1565b80851615611e6057918102915b93841c9390800290611e37565b509250929050565b60006118118383600082611e8b575060016104ea565b81611e98575060006104ea565b8160018114611eae5760028114611eb857611ed4565b60019150506104ea565b60ff841115611ec957611ec9611fd1565b50506001821b6104ea565b5060208310610133831016604e8410600b8410161715611ef7575081810a6104ea565b611f018383611e32565b8060001904821115611f1557611f15611fd1565b029392505050565b6000816000190483118215151615611f3757611f37611fd1565b500290565b600082821015611f4e57611f4e611fd1565b500390565b60005b83811015611f6e578181015183820152602001611f56565b838111156116295750506000910152565b600081611f8e57611f8e611fd1565b506000190190565b600181811c90821680611faa57607f821691505b60208210811415611fcb57634e487b7160e01b600052602260045260246000fd5b50919050565b634e487b7160e01b600052601160045260246000fd5b634e487b7160e01b600052604160045260246000fdfea26469706673582212209d0c3c8d7392aa8067eebfe6a358e320a883900bd01fd53a15f2d4b8e3346e1864736f6c63430008040033",
  "linkReferences": {},
  "deployedLinkReferences": {}
}