{
  "_format": "hh-sol-artifact-1",
  "contractName": "EventXTokenTransfer",
  "sourceName": "src/active/EventXTokenTransfer.sol",
  "abi": [
    {
      "anonymous": false,
      "inputs": [],
      "name": "TransferSuccess",
      "type": "event"
    },
    {
      "inputs": [
        {
          "internalType": "address",
          "name": "token",
          "type": "address"
        },
        {
          "internalType": "address",
          "name": "wallet",
          "type": "address"
        },
        {
          "internalType": "address",
          "name": "ticketToken",
          "type": "address"
        }
      ],
      "name": "__EventXTokenTransfer_init",
      "outputs": [],
      "stateMutability": "nonpayable",
      "type": "function"
    },
    {
      "inputs": [
        {
          "internalType": "address",
          "name": "token_",
          "type": "address"
        },
        {
          "internalType": "address",
          "name": "wallet_",
          "type": "address"
        },
        {
          "internalType": "address",
          "name": "ticketToken_",
          "type": "address"
        }
      ],
      "name": "__TokenTransfer_init",
      "outputs": [],
      "stateMutability": "nonpayable",
      "type": "function"
    },
    {
      "inputs": [
        {
          "internalType": "uint256",
          "name": "_amount",
          "type": "uint256"
        },
        {
          "internalType": "uint256[]",
          "name": "ids",
          "type": "uint256[]"
        },
        {
          "internalType": "uint256[]",
          "name": "ticketAmounts",
          "type": "uint256[]"
        }
      ],
      "name": "depositTokens",
      "outputs": [],
      "stateMutability": "nonpayable",
      "type": "function"
    },
    {
      "inputs": [
        {
          "internalType": "uint256[]",
          "name": "ids",
          "type": "uint256[]"
        },
        {
          "internalType": "uint256[]",
          "name": "ticketAmounts",
          "type": "uint256[]"
        }
      ],
      "name": "minTicket",
      "outputs": [],
      "stateMutability": "nonpayable",
      "type": "function"
    },
    {
      "inputs": [],
      "name": "ticketToken",
      "outputs": [
        {
          "internalType": "address",
          "name": "",
          "type": "address"
        }
      ],
      "stateMutability": "view",
      "type": "function"
    },
    {
      "inputs": [],
      "name": "token",
      "outputs": [
        {
          "internalType": "address",
          "name": "",
          "type": "address"
        }
      ],
      "stateMutability": "view",
      "type": "function"
    },
    {
      "inputs": [],
      "name": "wallet",
      "outputs": [
        {
          "internalType": "address",
          "name": "",
          "type": "address"
        }
      ],
      "stateMutability": "view",
      "type": "function"
    }
  ],
  "bytecode": "0x608060405234801561001057600080fd5b50610a11806100206000396000f3fe608060405234801561001057600080fd5b506004361061007d5760003560e01c80635bb020201161005b5780635bb02020146100d9578063d2448379146100ec578063d5ed4d5a146100ff578063fc0c546a1461011257600080fd5b806315fe9087146100825780631a6ee2b514610097578063521eb273146100aa575b600080fd5b610095610090366004610794565b61012b565b005b6100956100a536600461081c565b610205565b6001546100bd906001600160a01b031681565b6040516001600160a01b03909116815260200160405180910390f35b6100956100e7366004610752565b6104bd565b6100956100fa366004610752565b61061f565b6002546100bd906001600160a01b031681565b6000546100bd906201000090046001600160a01b031681565b336101725760405162461bcd60e51b81526020600482015260126024820152711cd95b99195c881a5cc81b9bdd081b9d5b1b60721b60448201526064015b60405180910390fd5b600254604051630fbfeffd60e11b81526001600160a01b0390911690631f7fdffa906101a6903390869086906004016108c0565b600060405180830381600087803b1580156101c057600080fd5b505af11580156101d4573d6000803e3d6000fd5b50506040517f41bff10501107ea6d629b2f2320bcb7430794ea0b36ecc79be9f42b3b8f3d558925060009150a15050565b336102475760405162461bcd60e51b81526020600482015260126024820152711cd95b99195c881a5cc81b9bdd081b9d5b1b60721b6044820152606401610169565b6001546001600160a01b03166102945760405162461bcd60e51b81526020600482015260126024820152711dd85b1b195d081a5cc81b9bdd081b9d5b1b60721b6044820152606401610169565b6000546201000090046001600160a01b03166102e65760405162461bcd60e51b81526020600482015260116024820152701d1bdad95b881a5cc81b9bdd081b9d5b1b607a1b6044820152606401610169565b6000805b825181101561033a5782818151811061031357634e487b7160e01b600052603260045260246000fd5b602002602001015182610326919061095d565b91508061033281610994565b9150506102ea565b50600061034e8266038d7ea4c68000610975565b90508481146103925760405162461bcd60e51b815260206004820152601060248201526f0c2dadeeadce840dad2e6e6dac2e8c6d60831b6044820152606401610169565b6000546001546040516323b872dd60e01b81523360048201526001600160a01b039182166024820152604481018890526201000090920416906323b872dd90606401602060405180830381600087803b1580156103ee57600080fd5b505af1158015610402573d6000803e3d6000fd5b505050506040513d601f19601f8201168201806040525081019061042691906107f5565b50600254604051630fbfeffd60e11b81526001600160a01b0390911690631f7fdffa9061045b903390889088906004016108c0565b600060405180830381600087803b15801561047557600080fd5b505af1158015610489573d6000803e3d6000fd5b50506040517f41bff10501107ea6d629b2f2320bcb7430794ea0b36ecc79be9f42b3b8f3d558925060009150a15050505050565b600054610100900460ff16806104d6575060005460ff16155b6104f25760405162461bcd60e51b81526004016101699061090f565b600054610100900460ff16158015610514576000805461ffff19166101011790555b6001600160a01b0384166105655760405162461bcd60e51b81526020600482015260186024820152774d61726b6574706c6163653a73657441646472657373657360401b6044820152606401610169565b6001600160a01b0383166105b65760405162461bcd60e51b81526020600482015260186024820152774d61726b6574706c6163653a73657441646472657373657360401b6044820152606401610169565b600080546001600160a01b03808716620100000262010000600160b01b031990921691909117909155600180548583166001600160a01b03199182161790915560028054928516929091169190911790558015610619576000805461ff00191690555b50505050565b600054610100900460ff1680610638575060005460ff16155b6106545760405162461bcd60e51b81526004016101699061090f565b600054610100900460ff16158015610676576000805461ffff19166101011790555b6106818484846104bd565b8015610619576000805461ff001916905550505050565b80356001600160a01b03811681146106af57600080fd5b919050565b600082601f8301126106c4578081fd5b8135602067ffffffffffffffff808311156106e1576106e16109c5565b8260051b604051601f19603f83011681018181108482111715610706576107066109c5565b60405284815283810192508684018288018501891015610724578687fd5b8692505b85831015610746578035845292840192600192909201918401610728565b50979650505050505050565b600080600060608486031215610766578283fd5b61076f84610698565b925061077d60208501610698565b915061078b60408501610698565b90509250925092565b600080604083850312156107a6578182fd5b823567ffffffffffffffff808211156107bd578384fd5b6107c9868387016106b4565b935060208501359150808211156107de578283fd5b506107eb858286016106b4565b9150509250929050565b600060208284031215610806578081fd5b81518015158114610815578182fd5b9392505050565b600080600060608486031215610830578283fd5b83359250602084013567ffffffffffffffff8082111561084e578384fd5b61085a878388016106b4565b9350604086013591508082111561086f578283fd5b5061087c868287016106b4565b9150509250925092565b6000815180845260208085019450808401835b838110156108b557815187529582019590820190600101610899565b509495945050505050565b6001600160a01b03841681526080602082018190526000906108e490830185610886565b82810360408401526108f68185610886565b8381036060909401939093525081526020019392505050565b6020808252602e908201527f496e697469616c697a61626c653a20636f6e747261637420697320616c72656160408201526d191e481a5b9a5d1a585b1a5e995960921b606082015260800190565b60008219821115610970576109706109af565b500190565b600081600019048311821515161561098f5761098f6109af565b500290565b60006000198214156109a8576109a86109af565b5060010190565b634e487b7160e01b600052601160045260246000fd5b634e487b7160e01b600052604160045260246000fdfea2646970667358221220b958a7032b7a3db512e3602e120846788031ca80d267f87f2505bb7b5437a14364736f6c63430008040033",
  "linkReferences": {},
  "deployedLinkReferences": {}
}