{
  "_format": "hh-sol-artifact-1",
  "contractName": "EventXTicketToken",
  "sourceName": "src/active/EventXTicketToken.sol",
  "abi": [
    {
      "inputs": [],
      "stateMutability": "nonpayable",
      "type": "constructor"
    },
    {
      "anonymous": false,
      "inputs": [
        {
          "indexed": true,
          "internalType": "address",
          "name": "account",
          "type": "address"
        },
        {
          "indexed": true,
          "internalType": "address",
          "name": "operator",
          "type": "address"
        },
        {
          "indexed": false,
          "internalType": "bool",
          "name": "approved",
          "type": "bool"
        }
      ],
      "name": "ApprovalForAll",
      "type": "event"
    },
    {
      "anonymous": false,
      "inputs": [
        {
          "indexed": true,
          "internalType": "address",
          "name": "operator",
          "type": "address"
        },
        {
          "indexed": true,
          "internalType": "address",
          "name": "from",
          "type": "address"
        },
        {
          "indexed": true,
          "internalType": "address",
          "name": "to",
          "type": "address"
        },
        {
          "indexed": false,
          "internalType": "uint256[]",
          "name": "ids",
          "type": "uint256[]"
        },
        {
          "indexed": false,
          "internalType": "uint256[]",
          "name": "values",
          "type": "uint256[]"
        }
      ],
      "name": "TransferBatch",
      "type": "event"
    },
    {
      "anonymous": false,
      "inputs": [
        {
          "indexed": true,
          "internalType": "address",
          "name": "operator",
          "type": "address"
        },
        {
          "indexed": true,
          "internalType": "address",
          "name": "from",
          "type": "address"
        },
        {
          "indexed": true,
          "internalType": "address",
          "name": "to",
          "type": "address"
        },
        {
          "indexed": false,
          "internalType": "uint256",
          "name": "id",
          "type": "uint256"
        },
        {
          "indexed": false,
          "internalType": "uint256",
          "name": "value",
          "type": "uint256"
        }
      ],
      "name": "TransferSingle",
      "type": "event"
    },
    {
      "anonymous": false,
      "inputs": [
        {
          "indexed": false,
          "internalType": "string",
          "name": "value",
          "type": "string"
        },
        {
          "indexed": true,
          "internalType": "uint256",
          "name": "id",
          "type": "uint256"
        }
      ],
      "name": "URI",
      "type": "event"
    },
    {
      "inputs": [
        {
          "internalType": "address",
          "name": "account",
          "type": "address"
        },
        {
          "internalType": "uint256",
          "name": "id",
          "type": "uint256"
        }
      ],
      "name": "balanceOf",
      "outputs": [
        {
          "internalType": "uint256",
          "name": "",
          "type": "uint256"
        }
      ],
      "stateMutability": "view",
      "type": "function"
    },
    {
      "inputs": [
        {
          "internalType": "address[]",
          "name": "accounts",
          "type": "address[]"
        },
        {
          "internalType": "uint256[]",
          "name": "ids",
          "type": "uint256[]"
        }
      ],
      "name": "balanceOfBatch",
      "outputs": [
        {
          "internalType": "uint256[]",
          "name": "",
          "type": "uint256[]"
        }
      ],
      "stateMutability": "view",
      "type": "function"
    },
    {
      "inputs": [
        {
          "internalType": "uint256",
          "name": "id",
          "type": "uint256"
        }
      ],
      "name": "getUnlockContent",
      "outputs": [
        {
          "internalType": "string",
          "name": "",
          "type": "string"
        }
      ],
      "stateMutability": "view",
      "type": "function"
    },
    {
      "inputs": [
        {
          "internalType": "address",
          "name": "owner",
          "type": "address"
        },
        {
          "internalType": "string",
          "name": "_uri",
          "type": "string"
        }
      ],
      "name": "init",
      "outputs": [],
      "stateMutability": "nonpayable",
      "type": "function"
    },
    {
      "inputs": [
        {
          "internalType": "address",
          "name": "account",
          "type": "address"
        },
        {
          "internalType": "address",
          "name": "operator",
          "type": "address"
        }
      ],
      "name": "isApprovedForAll",
      "outputs": [
        {
          "internalType": "bool",
          "name": "",
          "type": "bool"
        }
      ],
      "stateMutability": "view",
      "type": "function"
    },
    {
      "inputs": [
        {
          "internalType": "address",
          "name": "to",
          "type": "address"
        },
        {
          "internalType": "uint256",
          "name": "id",
          "type": "uint256"
        },
        {
          "internalType": "uint256",
          "name": "amount",
          "type": "uint256"
        },
        {
          "internalType": "bytes",
          "name": "data",
          "type": "bytes"
        }
      ],
      "name": "mint",
      "outputs": [],
      "stateMutability": "nonpayable",
      "type": "function"
    },
    {
      "inputs": [
        {
          "internalType": "address",
          "name": "to",
          "type": "address"
        },
        {
          "internalType": "uint256[]",
          "name": "ids",
          "type": "uint256[]"
        },
        {
          "internalType": "uint256[]",
          "name": "amounts",
          "type": "uint256[]"
        },
        {
          "internalType": "bytes",
          "name": "data",
          "type": "bytes"
        }
      ],
      "name": "mintBatch",
      "outputs": [],
      "stateMutability": "nonpayable",
      "type": "function"
    },
    {
      "inputs": [
        {
          "internalType": "address",
          "name": "from",
          "type": "address"
        },
        {
          "internalType": "address",
          "name": "to",
          "type": "address"
        },
        {
          "internalType": "uint256[]",
          "name": "ids",
          "type": "uint256[]"
        },
        {
          "internalType": "uint256[]",
          "name": "amounts",
          "type": "uint256[]"
        },
        {
          "internalType": "bytes",
          "name": "data",
          "type": "bytes"
        }
      ],
      "name": "safeBatchTransferFrom",
      "outputs": [],
      "stateMutability": "nonpayable",
      "type": "function"
    },
    {
      "inputs": [
        {
          "internalType": "address",
          "name": "from",
          "type": "address"
        },
        {
          "internalType": "address",
          "name": "to",
          "type": "address"
        },
        {
          "internalType": "uint256",
          "name": "id",
          "type": "uint256"
        },
        {
          "internalType": "uint256",
          "name": "amount",
          "type": "uint256"
        },
        {
          "internalType": "bytes",
          "name": "data",
          "type": "bytes"
        }
      ],
      "name": "safeTransferFrom",
      "outputs": [],
      "stateMutability": "nonpayable",
      "type": "function"
    },
    {
      "inputs": [
        {
          "internalType": "address",
          "name": "operator",
          "type": "address"
        },
        {
          "internalType": "bool",
          "name": "approved",
          "type": "bool"
        }
      ],
      "name": "setApprovalForAll",
      "outputs": [],
      "stateMutability": "nonpayable",
      "type": "function"
    },
    {
      "inputs": [
        {
          "internalType": "uint256[]",
          "name": "ids",
          "type": "uint256[]"
        },
        {
          "internalType": "string[]",
          "name": "content",
          "type": "string[]"
        }
      ],
      "name": "setUnlockContent",
      "outputs": [],
      "stateMutability": "nonpayable",
      "type": "function"
    },
    {
      "inputs": [
        {
          "internalType": "bytes4",
          "name": "interfaceId",
          "type": "bytes4"
        }
      ],
      "name": "supportsInterface",
      "outputs": [
        {
          "internalType": "bool",
          "name": "",
          "type": "bool"
        }
      ],
      "stateMutability": "view",
      "type": "function"
    },
    {
      "inputs": [
        {
          "internalType": "uint256",
          "name": "_tokenid",
          "type": "uint256"
        }
      ],
      "name": "uri",
      "outputs": [
        {
          "internalType": "string",
          "name": "",
          "type": "string"
        }
      ],
      "stateMutability": "pure",
      "type": "function"
    }
  ],
  "bytecode": "0x60806040523480156200001157600080fd5b506040805160208101909152600081526200002c8162000033565b506200012f565b8051620000489060029060208401906200004c565b5050565b8280546200005a90620000f2565b90600052602060002090601f0160209004810192826200007e5760008555620000c9565b82601f106200009957805160ff1916838001178555620000c9565b82800160010185558215620000c9579182015b82811115620000c9578251825591602001919060010190620000ac565b50620000d7929150620000db565b5090565b5b80821115620000d75760008155600101620000dc565b600181811c908216806200010757607f821691505b602082108114156200012957634e487b7160e01b600052602260045260246000fd5b50919050565b611e89806200013f6000396000f3fe608060405234801561001057600080fd5b50600436106100ce5760003560e01c80634e64d7461161008c578063e985e9c511610066578063e985e9c5146101bd578063f242432a146101f9578063f321b3051461020c578063fea417101461021f57600080fd5b80634e64d74614610184578063731133e914610197578063a22cb465146101aa57600080fd5b8062fdd58e146100d357806301ffc9a7146100f95780630e89341c1461011c5780631f7fdffa1461013c5780632eb2c2d6146101515780634e1273f414610164575b600080fd5b6100e66100e13660046116a7565b610232565b6040519081526020015b60405180910390f35b61010c6101073660046118bd565b6102c9565b60405190151581526020016100f0565b61012f61012a3660046118fc565b61031b565b6040516100f09190611abc565b61014f61014a36600461158e565b61034c565b005b61014f61015f366004611487565b61035e565b610177610172366004611722565b6103f5565b6040516100f09190611a7b565b61014f6101923660046117e2565b610556565b61014f6101a53660046116d0565b6106b1565b61014f6101b8366004611622565b6106bd565b61010c6101cb366004611455565b6001600160a01b03918216600090815260016020908152604080832093909416825291909152205460ff1690565b61014f61020736600461152c565b610794565b61014f61021a36600461165c565b61081b565b61012f61022d3660046118fc565b6108fa565b60006001600160a01b0383166102a35760405162461bcd60e51b815260206004820152602b60248201527f455243313135353a2062616c616e636520717565727920666f7220746865207a60448201526a65726f206164647265737360a81b60648201526084015b60405180910390fd5b506000908152602081815260408083206001600160a01b03949094168352929052205490565b60006001600160e01b03198216636cdb3d1360e11b14806102fa57506001600160e01b031982166303a24d0760e21b145b8061031557506301ffc9a760e01b6001600160e01b03198316145b92915050565b6060610326826109ec565b604051602001610336919061197a565b6040516020818303038152906040529050919050565b61035884848484610b0d565b50505050565b6001600160a01b03851633148061037a575061037a85336101cb565b6103e15760405162461bcd60e51b815260206004820152603260248201527f455243313135353a207472616e736665722063616c6c6572206973206e6f74206044820152711bdddb995c881b9bdc88185c1c1c9bdd995960721b606482015260840161029a565b6103ee8585858585610c74565b5050505050565b6060815183511461045a5760405162461bcd60e51b815260206004820152602960248201527f455243313135353a206163636f756e747320616e6420696473206c656e677468604482015268040dad2e6dac2e8c6d60bb1b606482015260840161029a565b600083516001600160401b0381111561048357634e487b7160e01b600052604160045260246000fd5b6040519080825280602002602001820160405280156104ac578160200160208202803683370190505b50905060005b845181101561054e576105138582815181106104de57634e487b7160e01b600052603260045260246000fd5b602002602001015185838151811061050657634e487b7160e01b600052603260045260246000fd5b6020026020010151610232565b82828151811061053357634e487b7160e01b600052603260045260246000fd5b602090810291909101015261054781611d28565b90506104b2565b509392505050565b6003546201000090046001600160a01b031633146105b65760405162461bcd60e51b815260206004820181905260248201527f4f776e61626c653a2063616c6c6572206973206e6f7420746865206f776e6572604482015260640161029a565b80518251146106185760405162461bcd60e51b815260206004820152602860248201527f6d697373206d61746368206c656e677468206265747765656e20696420616e636044820152670818dbdb9d195b9d60c21b606482015260840161029a565b60005b82518110156106ac5781818151811061064457634e487b7160e01b600052603260045260246000fd5b60200260200101516004600085848151811061067057634e487b7160e01b600052603260045260246000fd5b6020026020010151815260200190815260200160002090805190602001906106999291906112be565b50806106a481611d28565b91505061061b565b505050565b61035884848484610e2c565b336001600160a01b03831614156107285760405162461bcd60e51b815260206004820152602960248201527f455243313135353a2073657474696e6720617070726f76616c20737461747573604482015268103337b91039b2b63360b91b606482015260840161029a565b3360008181526001602090815260408083206001600160a01b03871680855290835292819020805460ff191686151590811790915590519081529192917f17307eab39ab6107e8899845ad3d59bd9653f200f220920489ca2b5937696c31910160405180910390a35050565b6001600160a01b0385163314806107b057506107b085336101cb565b61080e5760405162461bcd60e51b815260206004820152602960248201527f455243313135353a2063616c6c6572206973206e6f74206f776e6572206e6f7260448201526808185c1c1c9bdd995960ba1b606482015260840161029a565b6103ee8585858585610efc565b600354610100900460ff1680610834575060035460ff16155b6108975760405162461bcd60e51b815260206004820152602e60248201527f496e697469616c697a61626c653a20636f6e747261637420697320616c72656160448201526d191e481a5b9a5d1a585b1a5e995960921b606482015260840161029a565b600354610100900460ff161580156108b9576003805461ffff19166101011790555b6108c282611019565b6003805462010000600160b01b031916620100006001600160a01b0386160217905580156106ac576003805461ff0019169055505050565b606060006109083384610232565b1161094e5760405162461bcd60e51b81526020600482015260166024820152751e5bdd481b995959081d1bc81bdddb881d1a58dad95d60521b604482015260640161029a565b6000828152600460205260409020805461096790611cc1565b80601f016020809104026020016040519081016040528092919081815260200182805461099390611cc1565b80156109e05780601f106109b5576101008083540402835291602001916109e0565b820191906000526020600020905b8154815290600101906020018083116109c357829003601f168201915b50505050509050919050565b606081610a105750506040805180820190915260018152600360fc1b602082015290565b8160005b8115610a3a5780610a2481611d28565b9150610a339050600a83611c6a565b9150610a14565b6000816001600160401b03811115610a6257634e487b7160e01b600052604160045260246000fd5b6040519080825280601f01601f191660200182016040528015610a8c576020820181803683370190505b5090505b8415610b0557610aa1600183611c7e565b9150610aae600a86611d43565b610ab9906030611c52565b60f81b818381518110610adc57634e487b7160e01b600052603260045260246000fd5b60200101906001600160f81b031916908160001a905350610afe600a86611c6a565b9450610a90565b949350505050565b6001600160a01b038416610b335760405162461bcd60e51b815260040161029a90611bee565b8151835114610b545760405162461bcd60e51b815260040161029a90611ba6565b3360005b8451811015610c0c57838181518110610b8157634e487b7160e01b600052603260045260246000fd5b6020026020010151600080878481518110610bac57634e487b7160e01b600052603260045260246000fd5b602002602001015181526020019081526020016000206000886001600160a01b03166001600160a01b031681526020019081526020016000206000828254610bf49190611c52565b90915550819050610c0481611d28565b915050610b58565b50846001600160a01b031660006001600160a01b0316826001600160a01b03167f4a39dc06d4c0dbc64b70af90fd698a233a518aa5d07e595d983b8c0526c8f7fb8787604051610c5d929190611a8e565b60405180910390a46103ee81600087878787611030565b8151835114610c955760405162461bcd60e51b815260040161029a90611ba6565b6001600160a01b038416610cbb5760405162461bcd60e51b815260040161029a90611b17565b3360005b8451811015610dbe576000858281518110610cea57634e487b7160e01b600052603260045260246000fd5b602002602001015190506000858381518110610d1657634e487b7160e01b600052603260045260246000fd5b602090810291909101810151600084815280835260408082206001600160a01b038e168352909352919091205490915081811015610d665760405162461bcd60e51b815260040161029a90611b5c565b6000838152602081815260408083206001600160a01b038e8116855292528083208585039055908b16825281208054849290610da3908490611c52565b9250508190555050505080610db790611d28565b9050610cbf565b50846001600160a01b0316866001600160a01b0316826001600160a01b03167f4a39dc06d4c0dbc64b70af90fd698a233a518aa5d07e595d983b8c0526c8f7fb8787604051610e0e929190611a8e565b60405180910390a4610e24818787878787611030565b505050505050565b6001600160a01b038416610e525760405162461bcd60e51b815260040161029a90611bee565b33610e6c81600087610e638861119b565b6103ee8861119b565b6000848152602081815260408083206001600160a01b038916845290915281208054859290610e9c908490611c52565b909155505060408051858152602081018590526001600160a01b0380881692600092918516917fc3d58168c5ae7397731d063d5bbf3d657854427343f4c083240f7aacaa2d0f62910160405180910390a46103ee816000878787876111f4565b6001600160a01b038416610f225760405162461bcd60e51b815260040161029a90611b17565b33610f32818787610e638861119b565b6000848152602081815260408083206001600160a01b038a16845290915290205483811015610f735760405162461bcd60e51b815260040161029a90611b5c565b6000858152602081815260408083206001600160a01b038b8116855292528083208785039055908816825281208054869290610fb0908490611c52565b909155505060408051868152602081018690526001600160a01b03808916928a821692918616917fc3d58168c5ae7397731d063d5bbf3d657854427343f4c083240f7aacaa2d0f62910160405180910390a46110108288888888886111f4565b50505050505050565b805161102c9060029060208401906112be565b5050565b6001600160a01b0384163b15610e245760405163bc197c8160e01b81526001600160a01b0385169063bc197c819061107490899089908890889088906004016119d8565b602060405180830381600087803b15801561108e57600080fd5b505af19250505080156110be575060408051601f3d908101601f191682019092526110bb918101906118e0565b60015b61116b576110ca611d99565b806308c379a0141561110457506110df611db1565b806110ea5750611106565b8060405162461bcd60e51b815260040161029a9190611abc565b505b60405162461bcd60e51b815260206004820152603460248201527f455243313135353a207472616e7366657220746f206e6f6e20455243313135356044820152732932b1b2b4bb32b91034b6b83632b6b2b73a32b960611b606482015260840161029a565b6001600160e01b0319811663bc197c8160e01b146110105760405162461bcd60e51b815260040161029a90611acf565b604080516001808252818301909252606091600091906020808301908036833701905050905082816000815181106111e357634e487b7160e01b600052603260045260246000fd5b602090810291909101015292915050565b6001600160a01b0384163b15610e245760405163f23a6e6160e01b81526001600160a01b0385169063f23a6e61906112389089908990889088908890600401611a36565b602060405180830381600087803b15801561125257600080fd5b505af1925050508015611282575060408051601f3d908101601f1916820190925261127f918101906118e0565b60015b61128e576110ca611d99565b6001600160e01b0319811663f23a6e6160e01b146110105760405162461bcd60e51b815260040161029a90611acf565b8280546112ca90611cc1565b90600052602060002090601f0160209004810192826112ec5760008555611332565b82601f1061130557805160ff1916838001178555611332565b82800160010185558215611332579182015b82811115611332578251825591602001919060010190611317565b5061133e929150611342565b5090565b5b8082111561133e5760008155600101611343565b80356001600160a01b038116811461136e57600080fd5b919050565b600082601f830112611383578081fd5b8135602061139082611c2f565b60405161139d8282611cfc565b8381528281019150858301600585901b870184018810156113bc578586fd5b855b858110156113da578135845292840192908401906001016113be565b5090979650505050505050565b600082601f8301126113f7578081fd5b81356001600160401b0381111561141057611410611d83565b604051611427601f8301601f191660200182611cfc565b81815284602083860101111561143b578283fd5b816020850160208301379081016020019190915292915050565b60008060408385031215611467578182fd5b61147083611357565b915061147e60208401611357565b90509250929050565b600080600080600060a0868803121561149e578081fd5b6114a786611357565b94506114b560208701611357565b935060408601356001600160401b03808211156114d0578283fd5b6114dc89838a01611373565b945060608801359150808211156114f1578283fd5b6114fd89838a01611373565b93506080880135915080821115611512578283fd5b5061151f888289016113e7565b9150509295509295909350565b600080600080600060a08688031215611543578081fd5b61154c86611357565b945061155a60208701611357565b9350604086013592506060860135915060808601356001600160401b03811115611582578182fd5b61151f888289016113e7565b600080600080608085870312156115a3578384fd5b6115ac85611357565b935060208501356001600160401b03808211156115c7578485fd5b6115d388838901611373565b945060408701359150808211156115e8578384fd5b6115f488838901611373565b93506060870135915080821115611609578283fd5b50611616878288016113e7565b91505092959194509250565b60008060408385031215611634578182fd5b61163d83611357565b915060208301358015158114611651578182fd5b809150509250929050565b6000806040838503121561166e578182fd5b61167783611357565b915060208301356001600160401b03811115611691578182fd5b61169d858286016113e7565b9150509250929050565b600080604083850312156116b9578182fd5b6116c283611357565b946020939093013593505050565b600080600080608085870312156116e5578182fd5b6116ee85611357565b9350602085013592506040850135915060608501356001600160401b03811115611716578182fd5b611616878288016113e7565b60008060408385031215611734578182fd5b82356001600160401b038082111561174a578384fd5b818501915085601f83011261175d578384fd5b8135602061176a82611c2f565b6040516117778282611cfc565b8381528281019150858301600585901b870184018b1015611796578889fd5b8896505b848710156117bf576117ab81611357565b83526001969096019591830191830161179a565b50965050860135925050808211156117d5578283fd5b5061169d85828601611373565b600080604083850312156117f4578182fd5b82356001600160401b038082111561180a578384fd5b61181686838701611373565b935060209150818501358181111561182c578384fd5b8501601f8101871361183c578384fd5b803561184781611c2f565b6040516118548282611cfc565b8281528581019150838601600584901b850187018b1015611873578788fd5b875b848110156118ac5781358781111561188b57898afd5b6118998d8a838a01016113e7565b8552509287019290870190600101611875565b50979a909950975050505050505050565b6000602082840312156118ce578081fd5b81356118d981611e3a565b9392505050565b6000602082840312156118f1578081fd5b81516118d981611e3a565b60006020828403121561190d578081fd5b5035919050565b6000815180845260208085019450808401835b8381101561194357815187529582019590820190600101611927565b509495945050505050565b60008151808452611966816020860160208601611c95565b601f01601f19169290920160200192915050565b7f68747470733a2f2f63646e2e6368696e6574776f726b2e696f2f6576656e74738152602f60f81b6020820152600082516119bc816021850160208701611c95565b64173539b7b760d91b6021939091019283015250602601919050565b6001600160a01b0386811682528516602082015260a060408201819052600090611a0490830186611914565b8281036060840152611a168186611914565b90508281036080840152611a2a818561194e565b98975050505050505050565b6001600160a01b03868116825285166020820152604081018490526060810183905260a060808201819052600090611a709083018461194e565b979650505050505050565b6020815260006118d96020830184611914565b604081526000611aa16040830185611914565b8281036020840152611ab38185611914565b95945050505050565b6020815260006118d9602083018461194e565b60208082526028908201527f455243313135353a204552433131353552656365697665722072656a656374656040820152676420746f6b656e7360c01b606082015260800190565b60208082526025908201527f455243313135353a207472616e7366657220746f20746865207a65726f206164604082015264647265737360d81b606082015260800190565b6020808252602a908201527f455243313135353a20696e73756666696369656e742062616c616e636520666f60408201526939103a3930b739b332b960b11b606082015260800190565b60208082526028908201527f455243313135353a2069647320616e6420616d6f756e7473206c656e677468206040820152670dad2e6dac2e8c6d60c31b606082015260800190565b60208082526021908201527f455243313135353a206d696e7420746f20746865207a65726f206164647265736040820152607360f81b606082015260800190565b60006001600160401b03821115611c4857611c48611d83565b5060051b60200190565b60008219821115611c6557611c65611d57565b500190565b600082611c7957611c79611d6d565b500490565b600082821015611c9057611c90611d57565b500390565b60005b83811015611cb0578181015183820152602001611c98565b838111156103585750506000910152565b600181811c90821680611cd557607f821691505b60208210811415611cf657634e487b7160e01b600052602260045260246000fd5b50919050565b601f8201601f191681016001600160401b0381118282101715611d2157611d21611d83565b6040525050565b6000600019821415611d3c57611d3c611d57565b5060010190565b600082611d5257611d52611d6d565b500690565b634e487b7160e01b600052601160045260246000fd5b634e487b7160e01b600052601260045260246000fd5b634e487b7160e01b600052604160045260246000fd5b600060033d1115611dae57600481823e5160e01c5b90565b600060443d1015611dbf5790565b6040516003193d81016004833e81513d6001600160401b038160248401118184111715611dee57505050505090565b8285019150815181811115611e065750505050505090565b843d8701016020828501011115611e205750505050505090565b611e2f60208286010187611cfc565b509095945050505050565b6001600160e01b031981168114611e5057600080fd5b5056fea264697066735822122051ed04febbb6075cbbfdde02604889335e8f251e6022ee92f59d52873eada57964736f6c63430008040033",
  "linkReferences": {},
  "deployedLinkReferences": {}
}