{
  "_format": "hh-sol-artifact-1",
  "contractName": "EventXTicketToken",
  "sourceName": "src/active/EventXTicketToken.sol",
  "abi": [
    {
      "inputs": [],
      "stateMutability": "nonpayable",
      "type": "constructor"
    },
    {
      "anonymous": false,
      "inputs": [
        {
          "indexed": true,
          "internalType": "address",
          "name": "account",
          "type": "address"
        },
        {
          "indexed": true,
          "internalType": "address",
          "name": "operator",
          "type": "address"
        },
        {
          "indexed": false,
          "internalType": "bool",
          "name": "approved",
          "type": "bool"
        }
      ],
      "name": "ApprovalForAll",
      "type": "event"
    },
    {
      "anonymous": false,
      "inputs": [
        {
          "indexed": true,
          "internalType": "address",
          "name": "operator",
          "type": "address"
        },
        {
          "indexed": true,
          "internalType": "address",
          "name": "from",
          "type": "address"
        },
        {
          "indexed": true,
          "internalType": "address",
          "name": "to",
          "type": "address"
        },
        {
          "indexed": false,
          "internalType": "uint256[]",
          "name": "ids",
          "type": "uint256[]"
        },
        {
          "indexed": false,
          "internalType": "uint256[]",
          "name": "values",
          "type": "uint256[]"
        }
      ],
      "name": "TransferBatch",
      "type": "event"
    },
    {
      "anonymous": false,
      "inputs": [
        {
          "indexed": true,
          "internalType": "address",
          "name": "operator",
          "type": "address"
        },
        {
          "indexed": true,
          "internalType": "address",
          "name": "from",
          "type": "address"
        },
        {
          "indexed": true,
          "internalType": "address",
          "name": "to",
          "type": "address"
        },
        {
          "indexed": false,
          "internalType": "uint256",
          "name": "id",
          "type": "uint256"
        },
        {
          "indexed": false,
          "internalType": "uint256",
          "name": "value",
          "type": "uint256"
        }
      ],
      "name": "TransferSingle",
      "type": "event"
    },
    {
      "anonymous": false,
      "inputs": [
        {
          "indexed": false,
          "internalType": "string",
          "name": "value",
          "type": "string"
        },
        {
          "indexed": true,
          "internalType": "uint256",
          "name": "id",
          "type": "uint256"
        }
      ],
      "name": "URI",
      "type": "event"
    },
    {
      "inputs": [
        {
          "internalType": "address",
          "name": "account",
          "type": "address"
        },
        {
          "internalType": "uint256",
          "name": "id",
          "type": "uint256"
        }
      ],
      "name": "balanceOf",
      "outputs": [
        {
          "internalType": "uint256",
          "name": "",
          "type": "uint256"
        }
      ],
      "stateMutability": "view",
      "type": "function"
    },
    {
      "inputs": [
        {
          "internalType": "address[]",
          "name": "accounts",
          "type": "address[]"
        },
        {
          "internalType": "uint256[]",
          "name": "ids",
          "type": "uint256[]"
        }
      ],
      "name": "balanceOfBatch",
      "outputs": [
        {
          "internalType": "uint256[]",
          "name": "",
          "type": "uint256[]"
        }
      ],
      "stateMutability": "view",
      "type": "function"
    },
    {
      "inputs": [
        {
          "internalType": "uint256",
          "name": "id",
          "type": "uint256"
        }
      ],
      "name": "getUnlockContent",
      "outputs": [
        {
          "internalType": "string",
          "name": "",
          "type": "string"
        }
      ],
      "stateMutability": "view",
      "type": "function"
    },
    {
      "inputs": [
        {
          "internalType": "address",
          "name": "owner",
          "type": "address"
        },
        {
          "internalType": "string",
          "name": "_uri",
          "type": "string"
        }
      ],
      "name": "init",
      "outputs": [],
      "stateMutability": "nonpayable",
      "type": "function"
    },
    {
      "inputs": [
        {
          "internalType": "address",
          "name": "account",
          "type": "address"
        },
        {
          "internalType": "address",
          "name": "operator",
          "type": "address"
        }
      ],
      "name": "isApprovedForAll",
      "outputs": [
        {
          "internalType": "bool",
          "name": "",
          "type": "bool"
        }
      ],
      "stateMutability": "view",
      "type": "function"
    },
    {
      "inputs": [
        {
          "internalType": "address",
          "name": "to",
          "type": "address"
        },
        {
          "internalType": "uint256",
          "name": "id",
          "type": "uint256"
        },
        {
          "internalType": "uint256",
          "name": "amount",
          "type": "uint256"
        },
        {
          "internalType": "bytes",
          "name": "data",
          "type": "bytes"
        }
      ],
      "name": "mint",
      "outputs": [],
      "stateMutability": "nonpayable",
      "type": "function"
    },
    {
      "inputs": [
        {
          "internalType": "address",
          "name": "to",
          "type": "address"
        },
        {
          "internalType": "uint256[]",
          "name": "ids",
          "type": "uint256[]"
        },
        {
          "internalType": "uint256[]",
          "name": "amounts",
          "type": "uint256[]"
        },
        {
          "internalType": "bytes",
          "name": "data",
          "type": "bytes"
        }
      ],
      "name": "mintBatch",
      "outputs": [],
      "stateMutability": "nonpayable",
      "type": "function"
    },
    {
      "inputs": [
        {
          "internalType": "address",
          "name": "from",
          "type": "address"
        },
        {
          "internalType": "address",
          "name": "to",
          "type": "address"
        },
        {
          "internalType": "uint256[]",
          "name": "ids",
          "type": "uint256[]"
        },
        {
          "internalType": "uint256[]",
          "name": "amounts",
          "type": "uint256[]"
        },
        {
          "internalType": "bytes",
          "name": "data",
          "type": "bytes"
        }
      ],
      "name": "safeBatchTransferFrom",
      "outputs": [],
      "stateMutability": "nonpayable",
      "type": "function"
    },
    {
      "inputs": [
        {
          "internalType": "address",
          "name": "from",
          "type": "address"
        },
        {
          "internalType": "address",
          "name": "to",
          "type": "address"
        },
        {
          "internalType": "uint256",
          "name": "id",
          "type": "uint256"
        },
        {
          "internalType": "uint256",
          "name": "amount",
          "type": "uint256"
        },
        {
          "internalType": "bytes",
          "name": "data",
          "type": "bytes"
        }
      ],
      "name": "safeTransferFrom",
      "outputs": [],
      "stateMutability": "nonpayable",
      "type": "function"
    },
    {
      "inputs": [
        {
          "internalType": "address",
          "name": "operator",
          "type": "address"
        },
        {
          "internalType": "bool",
          "name": "approved",
          "type": "bool"
        }
      ],
      "name": "setApprovalForAll",
      "outputs": [],
      "stateMutability": "nonpayable",
      "type": "function"
    },
    {
      "inputs": [
        {
          "internalType": "uint256[]",
          "name": "ids",
          "type": "uint256[]"
        },
        {
          "internalType": "string[]",
          "name": "content",
          "type": "string[]"
        },
        {
          "internalType": "string[]",
          "name": "uris",
          "type": "string[]"
        }
      ],
      "name": "setMetaData",
      "outputs": [],
      "stateMutability": "nonpayable",
      "type": "function"
    },
    {
      "inputs": [
        {
          "internalType": "bytes4",
          "name": "interfaceId",
          "type": "bytes4"
        }
      ],
      "name": "supportsInterface",
      "outputs": [
        {
          "internalType": "bool",
          "name": "",
          "type": "bool"
        }
      ],
      "stateMutability": "view",
      "type": "function"
    },
    {
      "inputs": [
        {
          "internalType": "uint256",
          "name": "_tokenid",
          "type": "uint256"
        }
      ],
      "name": "uri",
      "outputs": [
        {
          "internalType": "string",
          "name": "",
          "type": "string"
        }
      ],
      "stateMutability": "view",
      "type": "function"
    }
  ],
  "bytecode": "0x60806040523480156200001157600080fd5b506040805160208101909152600081526200002c8162000033565b506200012f565b8051620000489060029060208401906200004c565b5050565b8280546200005a90620000f2565b90600052602060002090601f0160209004810192826200007e5760008555620000c9565b82601f106200009957805160ff1916838001178555620000c9565b82800160010185558215620000c9579182015b82811115620000c9578251825591602001919060010190620000ac565b50620000d7929150620000db565b5090565b5b80821115620000d75760008155600101620000dc565b600181811c908216806200010757607f821691505b602082108114156200012957634e487b7160e01b600052602260045260246000fd5b50919050565b611d37806200013f6000396000f3fe608060405234801561001057600080fd5b50600436106100ce5760003560e01c8063525bae5e1161008c578063e985e9c511610066578063e985e9c5146101bd578063f242432a146101f9578063f321b3051461020c578063fea417101461021f57600080fd5b8063525bae5e14610184578063731133e914610197578063a22cb465146101aa57600080fd5b8062fdd58e146100d357806301ffc9a7146100f95780630e89341c1461011c5780631f7fdffa1461013c5780632eb2c2d6146101515780634e1273f414610164575b600080fd5b6100e66100e136600461166d565b610232565b6040519081526020015b60405180910390f35b61010c61010736600461182b565b6102c9565b60405190151581526020016100f0565b61012f61012a36600461186a565b61031b565b6040516100f091906119eb565b61014f61014a366004611554565b6103bd565b005b61014f61015f36600461144d565b6103cf565b6101776101723660046116e8565b610466565b6040516100f091906119aa565b61014f6101923660046117a8565b6105c7565b61014f6101a5366004611696565b610793565b61014f6101b83660046115e8565b61079f565b61010c6101cb36600461141b565b6001600160a01b03918216600090815260016020908152604080832093909416825291909152205460ff1690565b61014f6102073660046114f2565b610876565b61014f61021a366004611622565b6108fd565b61012f61022d36600461186a565b6109dd565b60006001600160a01b0383166102a35760405162461bcd60e51b815260206004820152602b60248201527f455243313135353a2062616c616e636520717565727920666f7220746865207a60448201526a65726f206164647265737360a81b60648201526084015b60405180910390fd5b506000908152602081815260408083206001600160a01b03949094168352929052205490565b60006001600160e01b03198216636cdb3d1360e11b14806102fa57506001600160e01b031982166303a24d0760e21b145b8061031557506301ffc9a760e01b6001600160e01b03198316145b92915050565b600081815260056020526040902080546060919061033890611b99565b80601f016020809104026020016040519081016040528092919081815260200182805461036490611b99565b80156103b15780601f10610386576101008083540402835291602001916103b1565b820191906000526020600020905b81548152906001019060200180831161039457829003601f168201915b50505050509050919050565b6103c984848484610a4a565b50505050565b6001600160a01b0385163314806103eb57506103eb85336101cb565b6104525760405162461bcd60e51b815260206004820152603260248201527f455243313135353a207472616e736665722063616c6c6572206973206e6f74206044820152711bdddb995c881b9bdc88185c1c1c9bdd995960721b606482015260840161029a565b61045f8585858585610bb1565b5050505050565b606081518351146104cb5760405162461bcd60e51b815260206004820152602960248201527f455243313135353a206163636f756e747320616e6420696473206c656e677468604482015268040dad2e6dac2e8c6d60bb1b606482015260840161029a565b600083516001600160401b038111156104f457634e487b7160e01b600052604160045260246000fd5b60405190808252806020026020018201604052801561051d578160200160208202803683370190505b50905060005b84518110156105bf5761058485828151811061054f57634e487b7160e01b600052603260045260246000fd5b602002602001015185838151811061057757634e487b7160e01b600052603260045260246000fd5b6020026020010151610232565b8282815181106105a457634e487b7160e01b600052603260045260246000fd5b60209081029190910101526105b881611c00565b9050610523565b509392505050565b6003546201000090046001600160a01b031633146106275760405162461bcd60e51b815260206004820181905260248201527f4f776e61626c653a2063616c6c6572206973206e6f7420746865206f776e6572604482015260640161029a565b81518351146106895760405162461bcd60e51b815260206004820152602860248201527f6d697373206d61746368206c656e677468206265747765656e20696420616e636044820152670818dbdb9d195b9d60c21b606482015260840161029a565b60005b83518110156103c9578281815181106106b557634e487b7160e01b600052603260045260246000fd5b6020026020010151600460008684815181106106e157634e487b7160e01b600052603260045260246000fd5b60200260200101518152602001908152602001600020908051906020019061070a9291906111fb565b5081818151811061072b57634e487b7160e01b600052603260045260246000fd5b60200260200101516005600086848151811061075757634e487b7160e01b600052603260045260246000fd5b6020026020010151815260200190815260200160002090805190602001906107809291906111fb565b508061078b81611c00565b91505061068c565b6103c984848484610d69565b336001600160a01b038316141561080a5760405162461bcd60e51b815260206004820152602960248201527f455243313135353a2073657474696e6720617070726f76616c20737461747573604482015268103337b91039b2b63360b91b606482015260840161029a565b3360008181526001602090815260408083206001600160a01b03871680855290835292819020805460ff191686151590811790915590519081529192917f17307eab39ab6107e8899845ad3d59bd9653f200f220920489ca2b5937696c31910160405180910390a35050565b6001600160a01b038516331480610892575061089285336101cb565b6108f05760405162461bcd60e51b815260206004820152602960248201527f455243313135353a2063616c6c6572206973206e6f74206f776e6572206e6f7260448201526808185c1c1c9bdd995960ba1b606482015260840161029a565b61045f8585858585610e39565b600354610100900460ff1680610916575060035460ff16155b6109795760405162461bcd60e51b815260206004820152602e60248201527f496e697469616c697a61626c653a20636f6e747261637420697320616c72656160448201526d191e481a5b9a5d1a585b1a5e995960921b606482015260840161029a565b600354610100900460ff1615801561099b576003805461ffff19166101011790555b6109a482610f56565b6003805462010000600160b01b031916620100006001600160a01b0386160217905580156109d8576003805461ff00191690555b505050565b606060006109eb3384610232565b11610a315760405162461bcd60e51b81526020600482015260166024820152751e5bdd481b995959081d1bc81bdddb881d1a58dad95d60521b604482015260640161029a565b6000828152600460205260409020805461033890611b99565b6001600160a01b038416610a705760405162461bcd60e51b815260040161029a90611b1d565b8151835114610a915760405162461bcd60e51b815260040161029a90611ad5565b3360005b8451811015610b4957838181518110610abe57634e487b7160e01b600052603260045260246000fd5b6020026020010151600080878481518110610ae957634e487b7160e01b600052603260045260246000fd5b602002602001015181526020019081526020016000206000886001600160a01b03166001600160a01b031681526020019081526020016000206000828254610b319190611b81565b90915550819050610b4181611c00565b915050610a95565b50846001600160a01b031660006001600160a01b0316826001600160a01b03167f4a39dc06d4c0dbc64b70af90fd698a233a518aa5d07e595d983b8c0526c8f7fb8787604051610b9a9291906119bd565b60405180910390a461045f81600087878787610f6d565b8151835114610bd25760405162461bcd60e51b815260040161029a90611ad5565b6001600160a01b038416610bf85760405162461bcd60e51b815260040161029a90611a46565b3360005b8451811015610cfb576000858281518110610c2757634e487b7160e01b600052603260045260246000fd5b602002602001015190506000858381518110610c5357634e487b7160e01b600052603260045260246000fd5b602090810291909101810151600084815280835260408082206001600160a01b038e168352909352919091205490915081811015610ca35760405162461bcd60e51b815260040161029a90611a8b565b6000838152602081815260408083206001600160a01b038e8116855292528083208585039055908b16825281208054849290610ce0908490611b81565b9250508190555050505080610cf490611c00565b9050610bfc565b50846001600160a01b0316866001600160a01b0316826001600160a01b03167f4a39dc06d4c0dbc64b70af90fd698a233a518aa5d07e595d983b8c0526c8f7fb8787604051610d4b9291906119bd565b60405180910390a4610d61818787878787610f6d565b505050505050565b6001600160a01b038416610d8f5760405162461bcd60e51b815260040161029a90611b1d565b33610da981600087610da0886110d8565b61045f886110d8565b6000848152602081815260408083206001600160a01b038916845290915281208054859290610dd9908490611b81565b909155505060408051858152602081018590526001600160a01b0380881692600092918516917fc3d58168c5ae7397731d063d5bbf3d657854427343f4c083240f7aacaa2d0f62910160405180910390a461045f81600087878787611131565b6001600160a01b038416610e5f5760405162461bcd60e51b815260040161029a90611a46565b33610e6f818787610da0886110d8565b6000848152602081815260408083206001600160a01b038a16845290915290205483811015610eb05760405162461bcd60e51b815260040161029a90611a8b565b6000858152602081815260408083206001600160a01b038b8116855292528083208785039055908816825281208054869290610eed908490611b81565b909155505060408051868152602081018690526001600160a01b03808916928a821692918616917fc3d58168c5ae7397731d063d5bbf3d657854427343f4c083240f7aacaa2d0f62910160405180910390a4610f4d828888888888611131565b50505050505050565b8051610f699060029060208401906111fb565b5050565b6001600160a01b0384163b15610d615760405163bc197c8160e01b81526001600160a01b0385169063bc197c8190610fb19089908990889088908890600401611907565b602060405180830381600087803b158015610fcb57600080fd5b505af1925050508015610ffb575060408051601f3d908101601f19168201909252610ff89181019061184e565b60015b6110a857611007611c47565b806308c379a01415611041575061101c611c5f565b806110275750611043565b8060405162461bcd60e51b815260040161029a91906119eb565b505b60405162461bcd60e51b815260206004820152603460248201527f455243313135353a207472616e7366657220746f206e6f6e20455243313135356044820152732932b1b2b4bb32b91034b6b83632b6b2b73a32b960611b606482015260840161029a565b6001600160e01b0319811663bc197c8160e01b14610f4d5760405162461bcd60e51b815260040161029a906119fe565b6040805160018082528183019092526060916000919060208083019080368337019050509050828160008151811061112057634e487b7160e01b600052603260045260246000fd5b602090810291909101015292915050565b6001600160a01b0384163b15610d615760405163f23a6e6160e01b81526001600160a01b0385169063f23a6e61906111759089908990889088908890600401611965565b602060405180830381600087803b15801561118f57600080fd5b505af19250505080156111bf575060408051601f3d908101601f191682019092526111bc9181019061184e565b60015b6111cb57611007611c47565b6001600160e01b0319811663f23a6e6160e01b14610f4d5760405162461bcd60e51b815260040161029a906119fe565b82805461120790611b99565b90600052602060002090601f016020900481019282611229576000855561126f565b82601f1061124257805160ff191683800117855561126f565b8280016001018555821561126f579182015b8281111561126f578251825591602001919060010190611254565b5061127b92915061127f565b5090565b5b8082111561127b5760008155600101611280565b80356001600160a01b03811681146112ab57600080fd5b919050565b600082601f8301126112c0578081fd5b813560206112cd82611b5e565b6040516112da8282611bd4565b8381528281019150858301600585901b870184018810156112f9578586fd5b855b858110156113395781356001600160401b03811115611318578788fd5b6113268a87838c01016113ad565b85525092840192908401906001016112fb565b5090979650505050505050565b600082601f830112611356578081fd5b8135602061136382611b5e565b6040516113708282611bd4565b8381528281019150858301600585901b8701840188101561138f578586fd5b855b8581101561133957813584529284019290840190600101611391565b600082601f8301126113bd578081fd5b81356001600160401b038111156113d6576113d6611c31565b6040516113ed601f8301601f191660200182611bd4565b818152846020838601011115611401578283fd5b816020850160208301379081016020019190915292915050565b6000806040838503121561142d578182fd5b61143683611294565b915061144460208401611294565b90509250929050565b600080600080600060a08688031215611464578081fd5b61146d86611294565b945061147b60208701611294565b935060408601356001600160401b0380821115611496578283fd5b6114a289838a01611346565b945060608801359150808211156114b7578283fd5b6114c389838a01611346565b935060808801359150808211156114d8578283fd5b506114e5888289016113ad565b9150509295509295909350565b600080600080600060a08688031215611509578081fd5b61151286611294565b945061152060208701611294565b9350604086013592506060860135915060808601356001600160401b03811115611548578182fd5b6114e5888289016113ad565b60008060008060808587031215611569578384fd5b61157285611294565b935060208501356001600160401b038082111561158d578485fd5b61159988838901611346565b945060408701359150808211156115ae578384fd5b6115ba88838901611346565b935060608701359150808211156115cf578283fd5b506115dc878288016113ad565b91505092959194509250565b600080604083850312156115fa578182fd5b61160383611294565b915060208301358015158114611617578182fd5b809150509250929050565b60008060408385031215611634578182fd5b61163d83611294565b915060208301356001600160401b03811115611657578182fd5b611663858286016113ad565b9150509250929050565b6000806040838503121561167f578182fd5b61168883611294565b946020939093013593505050565b600080600080608085870312156116ab578182fd5b6116b485611294565b9350602085013592506040850135915060608501356001600160401b038111156116dc578182fd5b6115dc878288016113ad565b600080604083850312156116fa578182fd5b82356001600160401b0380821115611710578384fd5b818501915085601f830112611723578384fd5b8135602061173082611b5e565b60405161173d8282611bd4565b8381528281019150858301600585901b870184018b101561175c578889fd5b8896505b848710156117855761177181611294565b835260019690960195918301918301611760565b509650508601359250508082111561179b578283fd5b5061166385828601611346565b6000806000606084860312156117bc578081fd5b83356001600160401b03808211156117d2578283fd5b6117de87838801611346565b945060208601359150808211156117f3578283fd5b6117ff878388016112b0565b93506040860135915080821115611814578283fd5b50611821868287016112b0565b9150509250925092565b60006020828403121561183c578081fd5b813561184781611ce8565b9392505050565b60006020828403121561185f578081fd5b815161184781611ce8565b60006020828403121561187b578081fd5b5035919050565b6000815180845260208085019450808401835b838110156118b157815187529582019590820190600101611895565b509495945050505050565b60008151808452815b818110156118e1576020818501810151868301820152016118c5565b818111156118f25782602083870101525b50601f01601f19169290920160200192915050565b6001600160a01b0386811682528516602082015260a06040820181905260009061193390830186611882565b82810360608401526119458186611882565b9050828103608084015261195981856118bc565b98975050505050505050565b6001600160a01b03868116825285166020820152604081018490526060810183905260a06080820181905260009061199f908301846118bc565b979650505050505050565b6020815260006118476020830184611882565b6040815260006119d06040830185611882565b82810360208401526119e28185611882565b95945050505050565b60208152600061184760208301846118bc565b60208082526028908201527f455243313135353a204552433131353552656365697665722072656a656374656040820152676420746f6b656e7360c01b606082015260800190565b60208082526025908201527f455243313135353a207472616e7366657220746f20746865207a65726f206164604082015264647265737360d81b606082015260800190565b6020808252602a908201527f455243313135353a20696e73756666696369656e742062616c616e636520666f60408201526939103a3930b739b332b960b11b606082015260800190565b60208082526028908201527f455243313135353a2069647320616e6420616d6f756e7473206c656e677468206040820152670dad2e6dac2e8c6d60c31b606082015260800190565b60208082526021908201527f455243313135353a206d696e7420746f20746865207a65726f206164647265736040820152607360f81b606082015260800190565b60006001600160401b03821115611b7757611b77611c31565b5060051b60200190565b60008219821115611b9457611b94611c1b565b500190565b600181811c90821680611bad57607f821691505b60208210811415611bce57634e487b7160e01b600052602260045260246000fd5b50919050565b601f8201601f191681016001600160401b0381118282101715611bf957611bf9611c31565b6040525050565b6000600019821415611c1457611c14611c1b565b5060010190565b634e487b7160e01b600052601160045260246000fd5b634e487b7160e01b600052604160045260246000fd5b600060033d1115611c5c57600481823e5160e01c5b90565b600060443d1015611c6d5790565b6040516003193d81016004833e81513d6001600160401b038160248401118184111715611c9c57505050505090565b8285019150815181811115611cb45750505050505090565b843d8701016020828501011115611cce5750505050505090565b611cdd60208286010187611bd4565b509095945050505050565b6001600160e01b031981168114611cfe57600080fd5b5056fea264697066735822122082dfedb3fadf6be059f03c5697c78d2e3dbeac280603eb9e9573845e6c4c260364736f6c63430008040033",
  "linkReferences": {},
  "deployedLinkReferences": {}
}